:020000040001F9
:10B00000683E002001B201001BB201001DB2010028
:10B010000000000000000000000000000000000030
:10B020000000000000000000000000001FB201004E
:10B03000000000000000000021B2010023B2010066
:10B0400025B2010025B2010025D6010049D5010035
:10B0500025B201000000000059D1010025B2010015
:10B0600025B2010025B2010025B2010025B2010080
:10B0700025B2010025B2010025B2010025B2010070
:10B0800025B20100F1D2010025B2010025B2010074
:10B090005DD5010025B2010065D5010025B2010092
:10B0A00025B2010025B201000000000000000000F0
:10B0B0000000000000000000000000000000000090
:10B0C00000F002F800F040F80CA030C8083824184E
:10B0D0002D18A246671EAB4654465D46AC4201D1D0
:10B0E00000F032F87E460F3E0FCCB64601263342C2
:10B0F00000D0FB1AA246AB4633431847D46A00007F
:10B10000F46A00000023002400250026103A01D331
:10B1100078C1FBD8520700D330C100D50B6070470F
:10B1200010B5662902D106F0F3FB10BD002010BD5A
:10B130001FB501F04DFB04000020002106F046FB86
:10B14000E0601FBD10B510BD01F064FF1146FFF7B0
:10B15000EFFF04F081F901F07CFF03B4FFF7F2FF89
:10B1600003BC02F018FC0000401E00BF00BF00BF7F
:10B1700000BF00BF00BF00BF00BF00BF00BF00BFD7
:10B1800000BFF1D170470000401E00BF00BF00BFEC
:10B1900000BF00BF00BF00BF00BF00BF00BF00BFB7
:10B1A00000BFF1D170470000401E00BF00BF00BFCC
:10B1B00000BF00BF00BF00BF00BF00BF00BF00BF97
:10B1C00000BFF1D17047000070B505460C46164629
:10B1D00002E00FCC0FC5103E102EFAD2082E02D37B
:10B1E00003CC03C5083E042E07D301CC01C5361F8E
:10B1F00003E021782970641C6D1C761EF9D270BDA5
:10B2000003210C4802680A4302600B4802680A43A3
:10B2100002600A4880470A480047FEE7FEE7FEE76B
:10B22000FEE7FEE7FEE7000006480749074A084B2D
:10B2300070470000240500405405004085D50100FA
:10B24000C1B00100682E0020683E00206836002052
:10B2500068360020704700000FB41CB5084B06AAE2
:10B260007B4469460090059800F099FE0446002052
:10B27000694600F0A7FE20461CBC08BC04B0184775
:10B28000610D000070B5044685690068C10601D5EE
:10B29000302600E02026C00707D070BD6268304627
:10B2A000A1689047206A401C20626D1EF6D570BDD3
:10B2B00070B5044685690078C00707D170BD626823
:10B2C000A16820209047206A401C20626D1EF6D5A0
:10B2D00070BD0000F3B50446002081B02062204616
:10B2E000E1688847002872D0252802D06268A168EA
:10B2F000ABE0594F00267F442046E168884720286C
:10B30000054608DB312D06D2781920380078002850
:10B3100001D00643F0E7B00701D5042086430020A2
:10B32000E0610746A0612A2D0AD0284602F02CFBD6
:10B33000002827D0B8000019303D0090856119E041
:10B340000298BA00121902C8916102902046E16881
:10B350008847012F054617D1E06900281FDA202011
:10B3600086431CE000980A218069484300994019EF
:10B37000303888612046E1688847054602F004FBC2
:10B380000028EFD1012F0AD02E2D08D12046E168E8
:10B3900088470546202006437F1C022FC3DBA06997
:10B3A000002803DA4042A06101200643F00701D0E3
:10B3B000102086436C2D0BD0682D09D04C2D3CD02D
:10B3C0006A2D38D0742D38D07A2D36D016E040E072
:10B3D000E1682F4620468847B842054609D16C2FC0
:10B3E00029D001208002E1680643204688470546AF
:10B3F00004E06C2F1DD0FF2001300643002D28D023
:10B4000028464138192803D80120C00206432035B8
:10B41000204626602946029A1646FFF781FE00283C
:10B4200010D001280BD0F61DF008C00008300290A3
:10B4300055E74020E1E78020D5E70020D3E7361D1F
:10B4400002964CE762682846A1689047206A401C33
:10B4500044E7206AFEBD000012670000F8B5042A28
:10B460002CD3830712D00B78491C0370401C521E4A
:10B4700083070BD00B78491C0370401C521E8307B6
:10B4800004D00B78491C0370401C521E8B079B0F85
:10B4900005D0C91ADF002023DE1B08C90AE0FFF728
:10B4A00093FEF8BD1D4608C9FD401C46B4402C4320
:10B4B00010C0121F042AF5D2F308C91A521EF0D484
:10B4C0000B78491C0370401C521EEAD40B78491CAF
:10B4D0000370401C012AE4D409780170F8BD01E032
:10B4E00004C0091F0429FBD28B0701D50280801CF0
:10B4F000C90700D00270704700290BD0C30702D0E3
:10B500000270401C491E022904D3830702D5028021
:10B51000801C891EE3E70022EEE70022DFE700003F
:10B52000024670B50A4392072AD11E4DEE0104C8A7
:10B5300008C9541B9443344017D0D0B2D9B2401A32
:10B540002106014310D190B299B2401A210401435F
:10B550000AD110021902000A090A401A2102014305
:10B5600002D1100E190E401A70BD9A42DFD010BAE7
:10B5700019BA884201D9012070BD0020C04370BDB6
:10B5800002780B78401C491C002A09D09A4207D146
:10B5900002780B78401C491C002A01D09A42EFD057
:10B5A000D01A70BD01010101002203098B422CD386
:10B5B000030A8B4211D300239C464EE003460B4303
:10B5C0003CD4002243088B4231D303098B421CD365
:10B5D000030A8B4201D394463FE0C3098B4201D357
:10B5E000CB01C01A524183098B4201D38B01C01A8F
:10B5F000524143098B4201D34B01C01A5241030906
:10B600008B4201D30B01C01A5241C3088B4201D3B4
:10B61000CB00C01A524183088B4201D38B00C01A61
:10B62000524143088B4201D34B00C01A5241411A88
:10B6300000D201465241104670475DE0CA0F00D06B
:10B640004942031000D34042534000229C46030964
:10B650008B422DD3030A8B4212D3FC22890112BAEA
:10B66000030A8B420CD3890192118B4208D38901C2
:10B6700092118B4204D389013AD0921100E08909DA
:10B68000C3098B4201D3CB01C01A524183098B42BB
:10B6900001D38B01C01A524143098B4201D34B01A4
:10B6A000C01A524103098B4201D30B01C01A524107
:10B6B000C3088B4201D3CB00C01A524183088B428E
:10B6C00001D38B00C01A5241D9D243088B4201D317
:10B6D0004B00C01A5241411A00D201466346524102
:10B6E0005B10104601D34042002B00D54942704701
:10B6F00063465B1000D3404201B50020C046C046FF
:10B7000002BD7047704770470246C80FC0078143AB
:10B710004B0030B54B405B009B0D20D01923DB065E
:10B72000C91801231B05994220DB0324A407042523
:10B730001346AB400BD3002B04D1EB0613409B0008
:10B74000E34204D401246407002312195941FF2362
:10B750001B0599420BD2C9000143500F09E0CB02EF
:10B7600004D501430803024305D0054830BDFF213D
:10B77000C905084330BD084607210905884330BD87
:10B780000000C07F1F22030C02D10F22000402D050
:10B79000030E03D004E00020014670470002083A7F
:10B7A000030F01D10001121F830F01D18000921EEF
:10B7B000002801DB4000521E120551184205C0123C
:10B7C000411810467047C10FC90700D040420122FE
:10B7D00092071143D6E701218907D3E7F0B58B4CD7
:10B7E0000F09254689B0BD437BD01D092646AE43CF
:10B7F000FAD00E465E402740F60F3E43254071D0FA
:10B8000024012142FBD0FF24AD19A4042D1B039574
:10B8100001252D05DB02DB0AC9022B43C90A294396
:10B820001E010901040F130F050121431701880BA5
:10B83000820391432D098C46A90B1E438A0395432D
:10B84000B30B9A0396433F09BA0B9403A74302969E
:10B850002E467E430497B6464E19D7190C460196DC
:10B86000544305977E43371B7646BF1B3601B646C9
:10B87000BE0B361900967646BC043719009C01D3DE
:10B88000641C00946400002F01D001263443029E02
:10B89000049F754366467E430496760034196E0015
:10B8A00034190094029C019E1C196643751BAE4618
:10B8B000069465464519059C05956C4359437546A4
:10B8C0000891691A0191049E01465143A41B0491F9
:10B8D000611A009C0791E10605D06109012211431C
:10B8E00002E072E06EE06109089D00272C0A2D0637
:10B8F0006918049D7C412A0A2D066918019D624140
:10B90000AC0DAD026D185441079A910D9202551974
:10B910006141029A644658435443069B059A5A4330
:10B92000121A131B9A0E9B015B187A41010B00053A
:10B93000C3185141220A200644195A419A4200D2A2
:10B94000491C01204002814203D315230226F643FD
:10B9500002E014230326F6432020C51AA940174607
:10B96000AF40DA400A4320460399D84009147318BF
:10B9700019055118039A3843D2075140AC4009D0F9
:10B980000122944006D30022401C5141002C01D1D9
:10B99000400840001E4A934212D3012203989206A7
:10B9A000904207DB0520400709181A480143C012DE
:10B9B000414004E0032040070818C10FC9070020D8
:10B9C00009B0F0BD0020F107FAE705180C464C411C
:10B9D00011486D42A04115D394181A465A410E4899
:10B9E000644290410ED301204A004005824209D3AF
:10B9F0005A00824206D35940C90F084AC90700209D
:10BA00001143DDE700200649DAE700000000FF07E8
:10BA1000FE070000FFFFFF7F0000E0FF0000F07F57
:10BA20000000F87F0121C9050123411842001B06CF
:10BA3000D3185B0E0AD0C1100722D206891840071E
:10BA40005242D14201D5520089187047090208D5E7
:10BA50000146002A03D0C10FC907002070471046D5
:10BA60007047420202D000200249704707210905B1
:10BA70000143F4E70000F87F10B501469E24000260
:10BA8000CA15A307002A02D01843002A04DBA21A11
:10BA9000002A0CDDD04010BD1206120E01D140006C
:10BAA0004008A21A03D4D04040420028F3DDFF2210
:10BAB00048001206904201D9002010BDC817C043AB
:10BAC000584010BD1F22030C02D10F2200041CD0CD
:10BAD000030E01D10002083A030F01D10001121F29
:10BAE000830F01D18000921E002801DB4000521E0E
:10BAF000D2055118021251181922904004D3491C42
:10BB0000002801D14908490008467047C10FC907FC
:10BB100000D04042012292071143D3E70121890757
:10BB2000D0E7000010B5FF22C30D134009D05A40E2
:10BB300007D0914205DA5C42A14202DDC90508182E
:10BB400010BDC40FE407002B06D0002A06D0002940
:10BB500002DBFF20C0050443204610BD4102FCD09B
:10BB6000004810BD0000C07F704710B500F034FEE3
:10BB7000006810BD10B5044600F02EFE046010BD34
:10BB80007047FFB50C461E468FB003CA0890099156
:10BB90004F007D0D00D16D1E002108460020C046DB
:10BBA0000321099A89050840002A03DA82008018D7
:10BBB00040080840800D01280A9002DD0020C043A3
:10BBC0000A90089807430DD0EF48F04928184843D9
:10BBD0000714189800281DD07542291E1DDD0A98EB
:10BBE00042421BE01898012802D00020302104E0D6
:10BBF0000020F24305E02154401CB042FBDB3046FC
:10BC00000022189B002121540F998B600A60486024
:10BC100013B0F0BDBD1B6D1CDFE70A9A002900DAE6
:10BC200069420BA800F05EFE0BAB07CB03AB07C36A
:10BC30000899099800F0BAFE6B4607C30146D4483C
:10BC40000918002D00910ADDD14903980A9A49424A
:10BC5000401803A90390684601F0CDF807E0039966
:10BC60000A9A081803A90390684601F09AF86B46EF
:10BC700007C30004000C03D00020C043410800E0CB
:10BC80001046189A002A03D00022009215461EE0A2
:10BC9000751E05D400F0A4FD303262556D1EF9D535
:10BCA00001220843079602D000227F1C04E020787E
:10BCB000302801D100227F1E002A069789D01EE07D
:10BCC000112D07DA00F08CFD303262556D1C0246F2
:10BCD0000A43F5D1084303D00098002819D00EE09C
:10BCE0000021681E05E0235C625C63542254401E00
:10BCF000491C8142F7DBA81B401E07950690079A56
:10BD000018990020A0540F98079B069A81600CC0D8
:10BD10007EE71126002018905BE7D21DF0B50D4696
:10BD20000446D10893B0C90003C90C900D9101F0ED
:10BD300095FD02460D98C00F01D02D2007E0206828
:10BD4000810701D52B2002E04007C00F4001032AE4
:10BD50000F9001D0072A05DB03462946204600F054
:10BD60007DFD0EE12078800601D5E76900E0062719
:10BD70002846652D04D0662814D0672D69D12DE0A2
:10BD80000020112F009001DB112300E07B1C0CAA86
:10BD900003A910A8FFF7F5FE1199002610987D1C45
:10BDA0000E9142E001203B460CAAC0070B900120F7
:10BDB000009003A910A8FFF7E4FE119D12981099B6
:10BDC000002600280E9501D1781C0D18781B02D48E
:10BDD00046427D1C761EE81B00903AE0012F00DAF7
:10BDE00001270020112F009001DD112300E03B46C8
:10BDF0000CAA03A910A8FFF7C4FE11993D4610989C
:10BE000000260E91217809070BD40E99A94200DA79
:10BE10000D4603A9012D04DD4A19203AD27F302AAC
:10BE200006D0B84201DA011D04DA012100910FE0C9
:10BE30006D1EEFE7002802DC86192D1A03E0411C75
:10BE4000A94200DD0D46801B401C00900120C00768
:10BE50000B902078000705D40098A84202DB002050
:10BE6000C043009069460020C8720B98012102AFC0
:10BE70000337C907884225D0022010902B2011904B
:10BE80000B9800280BDA40420B902D20119006E011
:10BE90000B9800F0DFFF30317F1E0B903970109946
:10BEA000481E00291090F3DC0B980028F0D111985F
:10BEB0007F1E38702088000501D5452000E06520F0
:10BEC0007F1E387001A8C01BC01D0B900F98002862
:10BED00000D0012041190098C01709180B980818C4
:10BEE000A169081A401EA0612078C00602D420462D
:10BEF000FFF7C8F90F98002805D06268A16890473D
:10BF0000206A401C20622078C00625D52046FFF715
:10BF1000B9F921E0002E07DB0E98B04204DD03A83A
:10BF20006268805DA16802E06268A1683020904785
:10BF3000206A761C401C20620098401E0028009059
:10BF40000AD100F045FCC06862680168405CA168E5
:10BF50009047206A401C206228466D1E0028D9DCCC
:10BF600007E062683878A1687F1C9047206A401C0F
:10BF700020620B99481E00290B90F2DC2046FFF747
:10BF800097F9032044E6000001FCFFFF104D00007C
:10BF9000E1DFFFFF01694A1C02610878704700B5C4
:10BFA0008FB00291002105910549019379440391D5
:10BFB000114604906846FFF78DF90FB000BD0000F0
:10BFC000E5FFFFFF0A681070521C0A60704700000E
:10BFD000F0B50C46871A9C410D46861A9D4103D246
:10BFE000C01BA141D21963410D0D1F0DC94EEC1BA1
:10BFF000AE435CD07F057F0D0026002F51D02D056C
:10C00000AC46A943DD020123ED0A1B051D43202395
:10C010001B1B24D41746E740381871412F46E740D0
:10C02000CC199D402818314661410C0D27D161443F
:10C030009A4013D50023401C594152000ED14008AC
:10C04000400001224B005205D34207D30520400790
:10C05000C14201D5B04900E0B0493046F0BD6B00A7
:10C06000002A00D001229A181F23203C1B1B01D557
:10C07000002302E0E540281871410C0DD7D00124BF
:10C0800024050919C407CD0740084908E40F2843CF
:10C090006144002CD5D00024401C61419A40D0D18D
:10C0A000CDE76A05520DD9D1C90FC907D5E79C4D17
:10C0B0004E00002801D0012400E0002434195F0064
:10C0C000002A01D0012600E00026BE19954FAC429F
:10C0D0000CD8AE420AD8B44206D001256D05EC4218
:10C0E000BCD010461946F0BD9942FCD0002039461C
:10C0F000F0BDF0B51FB40C460F46811A9F4125468E
:10C10000861A9D4106D20125ED076F40401ABC41B9
:10C1100052187B41210D1E0D8D1BAC467D4D8D436C
:10C120007ED075056D0D7CD00D05AE46AC431B036E
:10C130001B0B794D52429D41202366469B1B14D315
:10C140001746F740381800260090744160462F4685
:10C150000741E41900989D402818664116D471469D
:10C1600071189A4025D5012320E093182A466A4188
:10C170005200002B00D0521C1E23203E9B1B002B84
:10C1800061DD3541EE1728186641E8D50018764183
:10C190005B1C9A4000D3401C4B05F3181524E34068
:10C1A00010D3002B52D071467118D30FC01802D390
:10C1B000491C05B0F0BD0123DB079A42F9D14008C4
:10C1C0004000F6E701225205B21801D1002853D0F1
:10C1D0000123CC0ADB029943891E002A08D1020CF4
:10C1E00003D0020C0004103902E00246002020397E
:10C1F0000023550B05D112020823550B01D1520122
:10C200000D23550C01D112011B1DD50C01D192003B
:10C210009B1C150D01D152005B1C2025EE1A01E07C
:10C220002CE022E00546F54015439840CA1AE10784
:10C2300069181305C918002ABBDA0320400708183B
:10C24000C10FC9070FE071466118B2E7F107400856
:10C250000843711071444A000CD001235B059A42D7
:10C26000A7D2C90FC9070020A3E74905490D26D168
:10C27000002001E00028F4D100219AE7284D660053
:10C28000002801D0012100E0002171185F00002A80
:10C2900001D0012600E00026BE19224FA94210D885
:10C2A000AE420ED8B14208D001256D05E94206D054
:10C2B0001946A802414010467BE79C4201D0214626
:10C2C00077E70020394674E710B50C465C4005D589
:10C2D0000124E4076340FFF70CFF10BDFFF778FE71
:10C2E00010BD30B40C465C4004D50124E407634023
:10C2F00030BC6DE630BCFCE670B50124E40761405B
:10C300000D465D4002D4FFF763FE70BD6340FFF74A
:10C31000F0FE70BDFF0700000000F0FF0000F07F9E
:10C320000000E0FF0000F87FF0B5F94D0C091E0990
:10C330002C402E402F468BB0A7437DD0B543FCD078
:10C34000002E7AD0002CFCD00D465D40ED0F254329
:10C35000AC1BFF25AD0464190894C502440DC90245
:10C360002143500DDC0204430120C0070143044374
:10C37000D2020191200C110C00958C460104234639
:10C380008B430A9161460904E24D8A430991010AEF
:10C390007D4449198039097805464D4301266D18B9
:10C3A000F605751B6943C90C640B891C4C43641862
:10C3B000B5012C1B250C2E04B4434C434D43210CDA
:10C3C000691889090591009DE90701D00121C90774
:10C3D00004912C4601996708CD072F434C08059D11
:10C3E000E10B4D432D0C29466646754302950D46DB
:10C3F00045432E46029D7D1BB44100950D465D438D
:10C4000001942C0C2F040D465543AE462D0C3D4394
:10C41000029503947546049C2D04641B049406D273
:10C42000029C039D641C002675410395029401AC97
:10C4300070CC009F7D1B01E03EE162E1B441090444
:10C440000095079101940599A4086143090C0C46D5
:10C450004443650BE7040C4666467443A646640BEA
:10C460003C43039502947446049DE4042C1B0494FD
:10C4700006D2029C039D641C00267541039502941C
:10C4800001AC70CC009F7D1BB44101940C465C4311
:10C490000095650FE7000C465443A646640F3C43E5
:10C4A000039502947446049DE4002C1B049406D268
:10C4B000029C039D641C002675410395029401AC07
:10C4C00070CC009F7D1BB441AE09AF06049DC9002E
:10C4D000AD092F43049DA406AD060495079D344382
:10C4E00069180791059DE10B4D432D0C29466646C1
:10C4F000754302950D4645432E46029D7D1BB44172
:10C5000000950D465D4301942C0C2F040D465543B8
:10C51000AE462D0C3D43029503947546049C2D04B4
:10C52000641B049406D2029C039D641C0026754182
:10C530000395029401AC70CC009F7D1BB441019423
:10C540008C050694079C890A611800950791019C47
:10C550000599A4086143090C0D464543680BEF0497
:10C560000D46644665436C0B3C43049FED047D1B04
:10C57000AC4602D20025641C6841009E019D371B19
:10C5800085410846584301950C46460FC500544363
:10C59000600F28436546E4002C1B02D20025401C96
:10C5A0006E41019D3F1AB5412846BD0980062843CA
:10C5B0008446A009BF064E020699A40676180743D2
:10C5C000079D002068410A99079019430020099BA4
:10C5D00000906046FF1913434041E20F64003A4364
:10C5E000A4460446D71A8C41A04203D901200090EA
:10C5F00020463A46C70F941840416246D20F224364
:10C60000644664000494009CBE466400D71AA446A5
:10C61000044602978C417746002F01D1A04204D9ED
:10C620006046401C8446029A2046C40FA6469418D1
:10C630004041049A0546D20F224364466400D31A4F
:10C640008D417146002901D1A84202D928461A46D7
:10C65000641C10430122002800D016436102002010
:10C66000079B891904465C410223002C02DB491810
:10C6700013466441089DCE0A2D145D194B056705CC
:10C68000E10A2C050D1908993E43C9076940002BA2
:10C6900008D0934006D30022761C5141002B01D1D3
:10C6A000760876001C4A002D43DB154241D0AA4390
:10C6B0003FD030460BB0F0BD06180D464D41174C2B
:10C6C0007642AC411AD395181C465C41134A6D4220
:10C6D000A24113D3012252054C00D4420AD15C007E
:10C6E000D4420BD04B4002D592021143E2E74900FD
:10C6F0004908DFE75940C90FC90718E00020084979
:10C70000D8E7054801420DD10342F7D0F2E7000017
:10C710000000FF07145700000000F07F0000E0FF5A
:10C720000000F87F114859400143C01241400020E9
:10C73000C0E70123089A9B069A4205DC03225207B0
:10C740008918C90FC907B5E7052252078918074A92
:10C750001143D2125140ADE770B515461C46024652
:10C760000B4628462146FFF7DFFD70BDFFFFFF7F28
:10C7700070B505464800440D124B0020002C0AD02D
:10C78000634008D09A4206DA6642B24203DD1205DF
:10C790004019514170BD002C08D0002B09D0C90FA1
:10C7A000C907002AF6DB084A114370BDC90FC90743
:10C7B00070BD28460A03104302D00020034970BD13
:10C7C000284670BDFF0700000000F07F0000F87FE2
:10C7D00000487047242E002000487047042E002097
:10C7E0000B4670B5024689078008084319469D0824
:10C7F000141AA94125090807054308092C194841BD
:10C80000250A01060D43010A2C194141200C0D0493
:10C8100028430D0C00194D41002140194D41C0081D
:10C8200069070843E908840F8D0025438400241814
:10C830004D4124196D41121BAB4107E00925ED4321
:10C840002C11521963410024401C61411C460A25E9
:10C850000026551BB441F1D270BD0000F8B51F464B
:10C86000044601230068DB02032601461840072A1C
:10C8700005DB002801D017A506E017A504E0002875
:10C8800001D016A500E016A5102081432160A06903
:10C89000C01E002FA06101D0401EA0612046FEF7FF
:10C8A000F1FC002F09D038466268A1689047206AE1
:10C8B000401C2062C01C206206E0206AFAE7626821
:10C8C0002878A1686D1C9047761EF8D22046FEF7A6
:10C8D000EFFCF8BD4E414E006E616E00494E4600C1
:10C8E000696E6600F7B516468AB02F4878446C46E4
:10C8F00003467C33C06F5A689B680DC42A4878444D
:10C90000763003AC0DC80DC43720C001081837219C
:10C910001B30FEF753FE05460C46803D1B3C02D5FE
:10C920006442012000E00020002709900FE0E007AA
:10C930000BD00C201C497843794432464C394118BD
:10C94000684600F02EFA6B4607C364107F1C002C6B
:10C95000EDD1154F7F442C3F15E0E80711D02001A1
:10C96000C0190EC80691089307920068F04201D1E1
:10C9700098190890324606A903A800F012FA03ABF2
:10C9800007C36D10641C002DE7D132466946099833
:10C99000002803A802D000F02EFA01E000F001FA0E
:10C9A0000A9B07C30DB0F0BD405200000346400093
:10C9B0000A4610B5400D0BD00121C9070F24A4026F
:10C9C00000191C0364082143540D2143D20207E0DF
:10C9D00000210120F2E7D40F490021435200401EFC
:10C9E0000029F8DADB0FDB07184310BDFFB50D4651
:10C9F000144685B04868516800F00BFF0091019023
:10CA0000A868A16800F005FF02910390A86861681A
:10CA100000F0FFFE029A12188242029201D2012017
:10CA200000E00020019A0B18D2180028019202D0D1
:10CA30008A4202D903E08A4201D2012000E00020AC
:10CA40000099081800906868A16800F0E2FE029A58
:10CA500012188242029201D2012000E00020019AC5
:10CA60000B18D2180028019202D08A4202D903E0A2
:10CA70008A4201D2012000E00020009908180090AD
:10CA80002868216840004900400849084018EE49DC
:10CA9000471814E001994000C90F0843009001981D
:10CAA00002994000C90F0843019002980399400081
:10CAB000C90F08430290039840007F1E039000981E
:10CAC0000028E7DA0898002801D0E04E00E00026B0
:10CAD000B74228DAF71BF806C00E15D0029B2021BA
:10CAE000091A039A8B401A430392029A019BC2408F
:10CAF0008B401A430292019A009BC2408B400099DE
:10CB00001A430192C14000917A110BD06B46032069
:10CB1000811A01D5002101E0890059588700401E83
:10CB2000D951F5D5374603980299002800D0012045
:10CB3000014308980291002808460CD0002800D034
:10CB400001200199019A490508430121D20AC9022D
:10CB5000D202019200E001210E9B0122D207012B9B
:10CB600002D0002B03D013E0002807D116E090423A
:10CB700004D890420CD1019B0B4209D0019B59185B
:10CB8000019105D10099491C009101D17F1C0092AF
:10CB9000002803D0102108460020C04628682168DC
:10CBA000019B009A4840C10F0598C90739430EC040
:10CBB00009B0F0BDFFB587B0099A08980899536885
:10CBC0009268406889689646002203931746944607
:10CBD000089A12685300099A5B08126852005208BA
:10CBE0009A1A9B4BD4180A9A002A01D0352200E0E9
:10CBF000402206920022012315460492DB0705938A
:10CC000024E0002D05D175460346039E4D1BB3411C
:10CC100009D375466646039B491B049D9841059BB5
:10CC20007519AC465F4163463B4308D0059B049EA3
:10CC3000DD0776082E435B080496059301E0521E3B
:10CC4000641EC50FED0749184041521C069B9A42CD
:10CC5000D7DB002D04D17546039A6B1A824101D2AD
:10CC600003200CE0039A0B466B404240134303D071
:10CC7000014303D0012002E0022000E000206146D1
:10CC800001910021009702910A99002905D061467F
:10CC9000400201436D4B019102E0800700230290A6
:10CCA0009C423ADA1A1BD006C00E15D0029D2021F4
:10CCB000019C091AC5408C402543029C8C4000D041
:10CCC00001242543019C02953D46C4408D403946D0
:10CCD0002C43C1400194009154111DD06D46022196
:10CCE000002202290CD10320001B07E0002804DBEE
:10CCF0008600AE59002E00D00122401C0328F5DB2F
:10CD0000081B02D588002A5004E0800028581043F0
:10CD10008A00A850491EE3D51C460A9800280298AC
:10CD20000CD0002800D001200199019A4905084340
:10CD30000121D20AC902D202019200E00121109B16
:10CD40000122D207012B02D0002B03D013E00028D0
:10CD500007D116E0904204D890420CD1019B0B42BF
:10CD600009D0019B5918019105D10099491C0091E6
:10CD700001D1641C0092002803D010210846002035
:10CD8000C04608980999019A0068096848400099C6
:10CD9000C30F0798DB0723430360826041600BB039
:10CDA000F0BD1FB5002300920A46014601A8FFF717
:10CDB0001DFE01AB07CB04B010BD1FB501230092CF
:10CDC0000A46014601A8FFF711FE01AB0F2407CB6D
:10CDD000A402C30F4000DB074008001B002900DB52
:10CDE0000020490000054908CC0A204349051843A2
:10CDF000D20A1143DFE71FB5002300920A4601461D
:10CE000001A8FFF7D7FE01AB07CBD4E71FB501237D
:10CE100000920A46014601A8FFF7CCFE01AB0F24A1
:10CE200007CBA402C30F4000DB074008001B00290A
:10CE300000DB0020490000054908CC0A20434905D1
:10CE40001843D20A1143B6E702C0FFFF013C0000BD
:10CE5000FF3F000001468008081A02091018020A64
:10CE60001018020C1018C008820012185200891AFB
:10CE700001E0401C0A390A29FBD27047F8B5224C60
:10CE80004E00069DA6420AD8A64201D1002806D12E
:10CE90005E00A64203D8A6420AD1002A08D00D247B
:10CEA000240425422CD02946002000F0DAF8F8BDF1
:10CEB0000C461C430CD4994202D0EFF30080F8BD1D
:10CEC000904202D0EFF30080F8BDEFF30080F8BD90
:10CED00009242407E5008B4206D0EFF30080A0432D
:10CEE000591A06D2284304E0101A05D3EFF3008044
:10CEF000A04380F30088F8BDEFF30080A043F1E782
:10CF0000009500F0C5F8F8BD0000E0FFF0B53D4B1E
:10CF100002460C461C400020002C63D03A4D8B4347
:10CF200066D000296BDB0B0D1D05A94301252D05DE
:10CF300029430124FD33E34001D392184941FF33D3
:10CF400081339C468B02940D0121234389074C4277
:10CF5000920200271B198C105D1A04D42D1B02D4D9
:10CF60002B466500491992185B416408F4D15C1A9C
:10CF700008D40125ED07EE175519744102D42A464D
:10CF80002346491C94185B41012292071D46E61B6B
:10CF90008D4106D4B61A854103D42B46550034463C
:10CFA0007F1924195B415208802AEFD1234300D016
:10CFB000022338460A22D04001D3012213438A05B6
:10CFC00010436246890A12058918002B09D00122F4
:10CFD000D34002D30022401C5141002B01D1400814
:10CFE0004000F0BD0B03134307D0C90FC907F0BDC4
:10CFF0000803104303D1002901DB1046F0BD0020D7
:10D000002946F0BD0000F07F0000F87F004870471F
:10D01000042E00207546FFF7F9FFAE46050069466D
:10D020005346C008C000854618B020B5FEF7FCF88E
:10D0300060BC00274908B6460026C0C5C0C5C0C5AB
:10D04000C0C5C0C5C0C5C0C5C0C5403D49008D46AE
:10D05000704710B50446C046C0462046FEF77DF82E
:10D0600010BDC80212D54803400F002804D0C803E1
:10D07000C043012188407047EFF3008000010009A0
:10D0800003210907084380F3008870470020704798
:10D0900010B500200249029A00F004F810BD00000B
:10D0A0000000F87F10B50C461107090F092904D0BC
:10D0B0000A290AD008290CD104E011460820FFF7FC
:10D0C000D0FF06E0510606D501E0510601D501204A
:10D0D000C007214610BDD10607D501010909CC08BA
:10D0E0004907000E0006044309E0410F20024907EA
:10D0F000000A0143200E00061D22D14101430846CB
:10D10000E7E770B58C180578401C6B075B0F01D101
:10D110000378401C2A1106D10278401C03E00678EF
:10D12000401C0E70491C5B1EF9D12B0705D400234F
:10D13000521E0DD40B70491CFAE70378401CCB1A21
:10D14000921C03E01D780D70491C5B1C521EF9D522
:10D15000A142D8D3002070BDF0B50025FF248BB0CC
:10D16000013401262F460195204602F047FE002893
:10D1700008D047484068304204D046480021201873
:10D1800035430160241D76007F1CA4B2042FEBD32D
:10D19000FF207D3002F032FE002807D03E480021FB
:10D1A0000160400705433D48006901903C4C280759
:10D1B00012D0012700262F420AD03A48B200111897
:10D1C00008690969C004C00E8903A258890F9047F5
:10D1D0007F00761C042EEED3002D57DA0020059038
:10D1E000401E4DE0A119403108788506AD0E42B2CF
:10D1F000521C39D00121A940089A0091114233D024
:10D2000080090390284601F045FD800020580490D5
:10D21000002802D10398032826D1039800990328F7
:10D2200002D10598084305901F4AA800801800689D
:10D23000019A8003800F114202D0022802D013E02D
:10D24000032811D10399032907D102281CD00221F8
:10D25000284602F0BBFD7F1CFFB20498002803D0D3
:10D26000049A284603999047761C042EBAD3002FBF
:10D270000CD00A4800690199884207D001900598AE
:10D2800000273E460890ADE70321E1E70BB0F0BD73
:10D2900000630040006000407C61004000050050D9
:10D2A0001828002000650040000700508307FF2277
:10D2B000DB0E9A408907090E994000280BDA000717
:10D2C000000F0838830808489B001818C369934367
:10D2D0000B43C3617047830804489B001B18186800
:10D2E000904308431860704700ED00E000E400E060
:10D2F00010B506490020086048608860C86003498E
:10D3000040390860486003F0BDFD10BD4011014088
:10D31000F7B518214843214916464418E16A8807A1
:10D32000800F02280BD0A06A626A801A401E01D5C5
:10D33000226A1018864202DD89072DD00646002E8B
:10D340002AD00027A06A616A451A6D1E01D5206A9D
:10D350004519616A206A411AA94201DC616A451ACD
:10D36000B54200DB3546616AE0692A4640180199FA
:10D37000FEF774F801987F1940190190606A761BD6
:10D3800040196062606A216A884201D100206062AF
:10D39000002ED7D13846FEBD0020FEBDC82000209B
:10D3A0000FB408B504A900916A46039900F004F887
:10D3B00001B008BC04B01847F7B598B007A80290B0
:10D3C000402000250495039018980C46059506907A
:10D3D0002178641C002974D0252907D002A800F008
:10D3E000F9F905980028F3DA1BB0F0BD00210123FC
:10D3F0000227042208262078232817D02B2813D0B0
:10D400002D280DD030280DD0002220780346303B47
:10D410000A2B0ED20A235A431218303A641CF4E73E
:10D42000194304E0394302E0114300E03143641C36
:10D43000E1E70023C7B22E2F0AD1641C20780746EB
:10D44000303F0A2F04D20A277B431B18303BF4E7F6
:10D450006C280DD068280BD0702852D00BDC252802
:10D460005AD058282ED063280CD0642858D110E008
:10D470002078641CECE7732832D0752817D0782800
:10D480004ED11FE01A981A9A0068011D11600178A8
:10D4900043E01A981A9F0068061D3E6000680191DB
:10D4A000009201460A2202A800F0C0F838E01A985B
:10D4B0001A9F0068061D3E600068009201910A22D2
:10D4C00009E02FE01A981A9F0068061D3E60006868
:10D4D000009201911022014602A800F009F91FE014
:10D4E0001A981A9A0068011D116006683178761C36
:10D4F000002915D002A800F06DF905980028F5DA8A
:10D500000EE01A981A9A00680823011D116001683C
:10D51000102200960195DFE7252102A800F05AF9B4
:10D52000641C5EE70598002800DC5DE7049800288D
:10D5300004D0024607A91898FFF7EAFE0499059857
:10D540004018059050E7000010B50249024801F06C
:10D55000FDFD10BD542900200030004010B503F03F
:10D5600027FC10BD10B506484068002805D080474C
:10D57000002801D000F0A0FB10BD01F0ABFD10BDF4
:10D580004021002010B501F045FE002805D01F49BC
:10D590001D484860C8131E4988611E48018CC9B2E5
:10D5A00001290BD1828C120708D1028D1206120FAD
:10D5B000042A03D1828D1206120F0AD0012921D12B
:10D5C000818C09071ED1018D0906090F0A2904D093
:10D5D00007E0114A01219160F5E7828D1206120FD2
:10D5E00005D00D290ED1808D0006000F0AD10B4801
:10D5F0000168012904D00A49016001680129FCD1B0
:10D60000C021416110BD0000DFFF07C000050040E0
:10D61000006C0040C00F00F00006004000EC064027
:10D620007593000010B503F051FF10BDFFB583B036
:10D630000E4670420D9F0C9C0090002900DB0846AE
:10D64000012502E0FDF7B0FF6D1C05998842F9D273
:10D650000698A84200D90546002C04D0002E01DB14
:10D66000780700D5641EB80702D50698002811D0A7
:10D67000F8070FD1002C0DD02046641EA84209D90E
:10D680002021039800F0A6F80398C0680028F1DA7A
:10D6900007B0F0BD002E02DA2D21009E02E07807CF
:10D6A00007D52B21039800F095F80398C06800284F
:10D6B000EEDBB807800F022811D1069800280ED1A2
:10D6C000002C0CD02046641EA84208D930210398B3
:10D6D00000F080F80398C0680028F1DAD8E70197D5
:10D6E00000943146069B059A039800F001F8CFE7B5
:10D6F000FFB581B001271E463D460A9C029802E014
:10D70000FDF752FF6D1C03998842F9D2AE4200D951
:10D7100035460B98C0071CD1002C1AD00B988007F7
:10D7200001D5002E02D0202000900BE03020FBE736
:10D730000099019800F04EF80198C068002845DB78
:10D74000002C06D02046641EA842F1D801E00398C0
:10D75000474339460298FDF727FF01460398814267
:10D7600001D3012000E000203146761E012901DDB1
:10D77000012100E000210843E9D1154E3946029805
:10D78000FDF712FF0146029A7943511A0291315C6A
:10D79000019800F01FF80198C068002805DB3846A2
:10D7A0000399FDF701FF0700E8D10B98C0070DD0E2
:10D7B000002C0BD02046641EA84207D920210198D6
:10D7C00000F008F80198C0680028F1DA05B0F0BD53
:10D7D000FC19020010B5044680686368421C93423D
:10D7E00005DB23681954A260E068401CE060A26871
:10D7F0006068824209D121682069FFF789FDA1682C
:10D80000884203D00020C043E06010BD0020A0602B
:10D8100010BDF8B5040C8BB2264682B25E431046AA
:10D8200058430D0C370C36040021801916467941F7
:10D830006E43370C36048019264679416E438919A8
:10D84000F8BD30B47446641E2578641CAB4200D227
:10D850001D46635D5B00E31830BC18474900CA02EF
:10D860000243100000D004204A0D01D001221043D1
:10D87000044A490D914201D102210843012800D1F7
:10D8800005207047FF070000F8B504464F1EC8008A
:10D890000838211815461E46086849683A46062386
:10D8A0009A4310D02A463346FDF798FF3A46D200F5
:10D8B000083AA3181A687F1E5B68FEF705FD06226A
:10D8C0003B469343EED1022F23D0042F11D0062FD5
:10D8D0002FD12A463346FDF781FFE36AA26AFEF79D
:10D8E000F3FC2A463346FDF779FF636A226AFEF7A6
:10D8F000EBFC2A463346FDF771FFE369A269FEF7A8
:10D90000E3FC2A463346FDF769FF63692269FEF7A7
:10D91000DBFC2A463346FDF761FFE368A268FEF7A9
:10D92000D3FC2A463346FDF759FF63682268FEF7A9
:10D93000CBFCF8BD002210B5134610460149FEF796
:10D94000F3FC10BD0000F03F10B5FEF7BDFC10BDAC
:10D95000002210B5134610461146FEF7E5FC10BD37
:10D9600010B50721024A00200907FEF701FF10BD8C
:10D9700001030000034A10B500201107FEF7F8FE6E
:10D9800010BD000001FDFFFF30380A2801D2012040
:10D99000704700207047FEE7F7B584B00025168871
:10D9A00007461580406B1446002813D0037805986D
:10D9B000032E51D30221017021881122491C89B202
:10D9C000218042542188491C89B2218043542088F7
:10D9D000401C2080386B00281DD005462088059902
:10D9E00002461232B24237D811220A54208810223D
:10D9F000401C80B220800A542088401C20800F20C8
:10DA00002A5C2388401ECA54228840B2521C2280BD
:10DA10000028F5DA0025384620300290807B002867
:10DA200006D033462246059901F018FC050014D1B2
:10DA30000298407B002806D032462146059800F027
:10DA40005DFD050009D1B878002823D005988646E9
:10DA50002088001DB04202D90C2007B0F0BD6846F6
:10DA600079DF0028F9D1218803207246505420889C
:10DA70001921401C80B22080115420887146401C1E
:10DA800080B2208041186846008803F0B3FD2188E9
:10DA900040182080F878002817D0218803230A46F0
:10DAA000FB56C91C0598B142D6D802218154218861
:10DAB0000122491C89B2218042542188491C89B223
:10DAC000218043542088401C20807868002817D08B
:10DAD00021880023C3560A46C91C0598B142BBD809
:10DAE0000221815421880A22491C89B22180425492
:10DAF0002188491C89B2218043542088401C208001
:10DB0000388900280AD0009438460196062202215E
:10DB10000830059B03F0E3FD05009ED1388A0028FC
:10DB20000AD0009438460196072203211030059B45
:10DB300003F0D5FD050090D1388B00280AD0009461
:10DB400038460196152214211830059B03F0C7FDB5
:10DB5000050082D1386A002806D03346224605994E
:10DB600001F0F4F80500D8D1786A002806D03346D1
:10DB70002246059901F08AFD0500CED10298007B6E
:10DB8000002807D0334622463846059903F024F88A
:10DB90000500C2D13878002807D0334622463846DF
:10DBA000059901F0A7FD0500B7D1284655E710B546
:10DBB00001220221002000F099FE002801D0072850
:10DBC00012D107220221012000F090FE002801D08E
:10DBD000072809D100210A22084600F087FE002804
:10DBE00001D0072800D1002010BD00000448426881
:10DBF0000121C9050B46934383600A40C260704708
:10DC00000005005070B50024064D06E06968E0008C
:10DC1000085C012101F0FCFD641C28788442F5D3E6
:10DC2000002070BD90200020F8B515460C46064631
:10DC3000052A01D20720F8BD01F0C0FE002803D15B
:10DC400001F092FE0028F6D1104900204E600C70C1
:10DC5000C8608D6008610E4D0DE0E00069688019B4
:10DC6000009181786A46517000780A4A694601F04D
:10DC70001FFE0028DFD12046641EE4B20028ECD14C
:10DC8000054A0021024800F04DF8F8BD9020002020
:10DC9000F41902000DF0010045EE0100BFF34F8FB3
:10DCA00004490348C860BFF34F8F00BFFDE7000081
:10DCB0000400FA0500ED00E00EB50021029000918D
:10DCC0006A4601910148FFF7E9FF0EBD01400000DF
:10DCD00010B58268C368934203D001F003F90020B5
:10DCE00010BD052010BD002906D0002A02D0531E09
:10DCF000134203D0092070470E20704701608380D3
:10DD000000218160C1600846704710B58268C36811
:10DD10009A1A83889A4203D801F0EEF8002010BDC9
:10DD2000042010BD094B9B68002B07D0002A07D0A8
:10DD3000002805D00068037C002B03D00820704722
:10DD4000072070474174426100207047A4200020E2
:10DD5000FFB59007002581B014460E46002832D149
:10DD60001B4F002C31D002F01DFE04987861032077
:10DD7000387033461821224600204B43BC601834CB
:10DD8000C10089180D704D708E704C601C19401CBC
:10DD90000328F5DBFD607D7001240E48BD7024056D
:10DDA000046003211420FFF781FA0B4804600B4C38
:10DDB0000198A06003211120FFF778FA60683861AC
:10DDC000002005B0F0BD0720FBE7BD60FBE70000C9
:10DDD000A420002080E200E000E100E00015014006
:10DDE000FEB50D461B4917468968044600292AD00E
:10DDF000002C28D0052D01D20720FEBD6069002827
:10DE000021D0607C012820D0002603F02BFCC0002C
:10DE10001049019089684018694603F04DFC0028BC
:10DE200015D0012101700C49446049680830E2C0F6
:10DE3000084901988968411868460078487002F0DE
:10DE4000F9FF0020FEBD0820FEBD2E46DDE70420C0
:10DE5000FEBD0000A420002000150140F8B5134DC0
:10DE60000446A96800291CD0002C1AD0606900283B
:10DE700017D00026267403F0F5FBC700A868694692
:10DE8000381803F019FC00280DD0022101704460FD
:10DE9000A868391868460078487002F0CBFF304611
:10DEA000F8BD0820F8BD0420F8BD0000A420002023
:10DEB00010B5044609488168C2688088511A8142B9
:10DEC00007D10121064801F075FE002801D0052088
:10DED00010BD21460148FFF7FBFE10BDF8270020CA
:10DEE0006520002070B50446224888B01E460D000B
:10DEF00042601CD0A888296882B21F48FFF7F3FE51
:10DF0000002815D1A889A96882B21B481030FFF7F4
:10DF1000EAFE00280CD1202218496846FDF754F982
:10DF2000A06806902079002804D0012103E0072092
:10DF300008B070BD00216846017506776079002839
:10DF400000D00E2069464875E0780290A0780390D2
:10DF500020780190607800900949684601F0C6FD7C
:10DF60000028E5D101F04CFE02480121401C01F0DF
:10DF700021FEDDE764200020F82700209819020028
:10DF80001D14020010B501460A48FFF7BEFE04004A
:10DF90000ED101F0DBFE00280AD107490548FFF742
:10DFA00097FE002804D10121034801F083FE0446B6
:10DFB000204610BD0828002064200020F0B50C4643
:10DFC00093B01F216A461180072600279180002800
:10DFD00009D0C17849070DD502A9FFF7DDFC00285B
:10DFE00009D102AD01E000251780002C0ED0E078A9
:10DFF000002802D0304613B0F0BD01AA0AA920467D
:10E00000FFF7CAFC0028F6D10AAA02E068460022FF
:10E01000878068468088C3B268460088C1B22846B7
:10E0200072DFE8E770B50D4604991646040042D049
:10E03000002E40D0424800224271C3600161242278
:10E0400031464048FDF7C0F800F0BCF83D49343196
:10E050000846103801602031816038215C38FDF7B6
:10E060005CFA3848217838380170A1788170E178FD
:10E07000C170617841706269216942610161E26841
:10E08000A168C26081600146E369A269CB618A61CF
:10E09000616A002919D00146AC310246B8324162AA
:10E0A0008A60636A1B880B80616A436A89889980E9
:10E0B0000021436A06E00E2070BD666AB668765C91
:10E0C0005654491C9E888E42F7D8A16A00291CD05C
:10E0D0001C4AAC3211460C398A608162A36A9B8863
:10E0E0008B80A16A836A098819800021836A04E011
:10E0F000A66AB668765C5654491C9E888E42F7D84C
:10E100002C210A5D0F4918390A73216A002909D0A8
:10E110000B4914310162226A52884A80216A026ADC
:10E12000098811806168002904D00549891D416072
:10E1300061684160034829463838FFF73FFF70BDEA
:10E1400030200020F026002010B502881C4C102A38
:10E1500017D00021112A1AD01B2A11D1007A0028C9
:10E160000ED1607901281ED0022822D0032822D0A7
:10E17000042805D12171E2680846002A00D09047A2
:10E1800010BD817D0129FBD18088208110BD617087
:10E19000808821898842F9D1012005E02169002980
:10E1A000F4D0884710BD022000F040F80028F5D1D7
:10E1B00010BD0320F8E7032020710420F4E70000DD
:10E1C0003020002010B507210148FDF7A6F910BD49
:10E1D0004820002010B51348007801281FD1124CA8
:10E1E000607800281BD16079002802D074DF0028F5
:10E1F00016D101200B49607006203839C8700948D3
:10E2000000213838FFF7DAFE002809D1607900F0E4
:10E210000DF8002803D02169002900D0884700208C
:10E2200010BD0000F026002030200020F0B5784C12
:10E2300087B06071002606A8069602F083FB0127CE
:10E24000082802D0002808D104E006A800F05EFEED
:10E25000002804D10698002801D02770D4E0FFF7E9
:10E26000B1FF6C4D6878002802D06079012807D092
:10E27000A87800280CD06079012801D0022824D188
:10E28000E168002903D0E7700820884700E0E670C5
:10E290006079012808D16878002809D05C481930D5
:10E2A00001F02EFE002803D06079022802D00CE095
:10E2B00002206071A878002805D05548193001F077
:10E2C0001FFE002801D103206071287B002804D1A3
:10E2D0006079032801D104206071287E002804D1D0
:10E2E0006079042801D166712671E16800290AD09D
:10E2F0006079032801D0042805D12878002802D0AD
:10E300006078002817D0A67018216846FDF705F937
:10E3100068460670019606720396607901280ED051
:10E32000022815D03B4E243637465C3F03281BD0CD
:10E3300004285DD13AE0A77007208847E4E7344815
:10E34000183001906846077046820682277152E0B5
:10E350002F48183001906846077029894182A988A2
:10E3600001820220207146E0A88A69464882288AF4
:10E3700008822848243003F021FA002805D02878A4
:10E38000002802D06078002801D003202FE002206E
:10E390006946087204200396F8701E480021383838
:10E3A000FFF70CFE002830D1052020E0A88B69463D
:10E3B0000882288C48821748243003F0FFF900288F
:10E3C00005D02878002802D06078002801D00420E9
:10E3D0000DE002206946087204200396F8700D488B
:10E3E00000213838FFF7EAFD00280ED10620207101
:10E3F0006079002803D0684673DF002805D1E16802
:10E40000002901D020798847002007B0F0BD000026
:10E4100030200020F026002070B5054601461C2261
:10E420000E48FCF7D1FE0E4C002626702968002904
:10E4300006D00822201DFDF711F8201D7ADF02E02A
:10E440000748001D7BDF002807D1401E60806670F2
:10E45000044A00210448FFF765FC70BDDC2700205A
:10E46000502000200116020084190200F8B5214C4A
:10E47000028800271E4DE689102A15D01E49112A50
:10E4800021D0122A2DD0502A1CD1C288801DB24220
:10E4900018D14289022A15D1427B037B100218430E
:10E4A000C007C00F0CD112E0818869800146104876
:10E4B000082218310C30FCF7D1FF6F70002E01D10B
:10E4C00000F08CFCF8BD0020C04368806F700868C5
:10E4D000FFF7C4FC0028F5D0A1690029F2D08847D5
:10E4E000F8BD0822811802480C30FCF7B7FFE7E7B7
:10E4F00050200020DC270020841902007CB505464E
:10E5000008880C460930904201D90C207CBD684631
:10E5100071DF0028FAD121880820685420881B2147
:10E52000401C80B220802954208800A9401C80B261
:10E530002080401906220131FCF790FF20886946AF
:10E54000801D80B220800978002900D00121295443
:10E550002088401C208000207CBD000010B50446AF
:10E56000FFF784FF2146064800F040F8204601F0FE
:10E5700085FC2046FFF7E8FD204600F0EFF810BDCF
:10E580009C25002030B5184B0D4604000FCB85B0FC
:10E5900003936B4607C324D0002D22D00020C04334
:10E5A000A0822868A0610020A0752146684663DF2C
:10E5B000002814D121786846817401210182A21CAF
:10E5C00004A90120A0DF002809D12946204602F035
:10E5D00027FA002803D12946204602F09FFE05B005
:10E5E00030BD0E20FBE700008819020000281ED075
:10E5F00000291CD00A88102A14D0112A14D0502ABD
:10E6000015D1CA88038A891D9A4202D14B89022BEF
:10E610000ED083889A420AD18369002B07D04A8999
:10E620000C311847898801E00021C9438182704775
:10E630004A7B0B7B11021943C907C90F00D0012186
:10E640008175704707B584B000280DD0828A114BC0
:10E650009A420BD0827D002A08D06A46128B142A77
:10E6600006D9072007B000BD0E20FBE70820F9E718
:10E670000022009201920292039282896B461A80D4
:10E68000039106A9029101219970808A6946A6DF4B
:10E69000E8E70000FFFF000000B5174887B00068FA
:10E6A000059000234822154905A802F043FB0028E5
:10E6B00001D0FFF701FB6A460121002002F022FB96
:10E6C000002801D0FFF7F8FA0D4802F015FA0028EB
:10E6D00001D0FFF7F1FA684602F00AFB002801D0EA
:10E6E000FFF7EAFA074802F0F9FA002801D0FFF72D
:10E6F000E3FA07B000BD00002019020078210020D5
:10E70000E81F00205DE501007CB5134E00250C4696
:10E710003060002918D06946002000F0B5F80028C4
:10E7200019D101A9012000F0AFF8002813D16846E3
:10E7300001790020002901D0022004E0694609780F
:10E74000002900D00B2020707068002802D1FFF74C
:10E750002EFA054628467CBD2820002010B51C4C0A
:10E760000188606810290DD011290AD1401E60600F
:10E7700007D1FFF71CFA002803D02168002900D038
:10E78000884710BD00281ED100210122084600F054
:10E79000ADF8002801D0072811D10722022101205D
:10E7A00000F0A4F8002801D0072808D10422022193
:10E7B000002000F09BF8002805D0072803D021682E
:10E7C000002900D088476068401C606010BD0000D0
:10E7D0002820002010B5032000F006FA002801D000
:10E7E000062800D1002010BDF8B5074600242348B4
:10E7F00002E0641C042C1AD2A2008258BA42F8D15A
:10E80000042C14D21D481E4E0C38002929D0012991
:10E810000ED002290BD16000201880194578002DF8
:10E8200005D018480169002901D028468847F8BD5D
:10E8300061006118755C8E19717800290CD011493E
:10E840000A224968806851430E4A521CFFF7C8FAF1
:10E85000002801D10B4847700A48B178143001559F
:10E86000DDE78068FFF7FAFA0648610061181430A6
:10E870008919005D8D78A842D1D0F8BD54190200E5
:10E880008C2600201020002004280CD2074A126990
:10E89000074B80001B5C01209840904300D0012072
:10E8A0000870002070470020FAE7000000050050C3
:10E8B0005419020010B5042806D007280ED00A28E3
:10E8C00001D102F0F7F910BD07481321808876DFE7
:10E8D00006E00028F7D0FFF7EFF910BDFFF77AFC4C
:10E8E0000828F6D110BD0000E81F002070B50023F5
:10E8F000042811D2440004190D4D012A02D1012926
:10E900000DD0002246008019094E801900290CD034
:10E91000012906D0022906D00723184670BD0D3004
:10E92000C2B22A55F9E74270F7E78270F5E70000B6
:10E930008C26002010B5054A0146127A0020D20725
:10E9400002D0084600F054F810BD0000102000204E
:10E9500070B50E46204905464E608D6000200A6164
:10E96000A9071ED50024012211462046FFF7BEFF4D
:10E97000641C042C02D20028F5D012E0002810D12B
:10E98000720804211548FFF74FF9002809D1FFF755
:10E9900039F9002805D11148114A00211438FFF730
:10E9A000C1F9E90706D00F220E4952058A600023FB
:10E9B000CB608A6100280DD108480B4A00211C3821
:10E9C000FFF7B0F9002805D10448084A012118389A
:10E9D000FFF7A8F970BD00001020002064190200A4
:10E9E00025EC010000050050B1F20100EDDB010053
:10E9F000FEB57A4D0722EB6892059A4302936B6845
:10EA000000939C0006461B19002001210193490533
:10EA10000746734C3300FEF714FF180D15153747E2
:10EA200055677C887F8891DE9E9E9E9E9EC8CED133
:10EA3000D8DEDE140F21029A49059143A160E760F8
:10EA40002F70FEBDA260E76060680F225205504043
:10EA5000800209D5A160E760022E02D1E120C0004A
:10EA60000AE07D20400107E0E160A760022E01D1AD
:10EA7000C82001E0FF2091302E706421FCF794FD46
:10EA80000099414300223FE0A260E76060680F22E6
:10EA900052055040800204D5A160E7601920400172
:10EAA000EAE7E160A760E3E7A260E76060680F2241
:10EAB00052055040800202D5A160E760D1E7E160D5
:10EAC000A760D7E7A260E76060680F225205504058
:10EAD000800202D5A160E76001E0E160A7602E70CE
:10EAE0000098410000220FE0A260E76060680F22FA
:10EAF00052055040800202D5A160E76001E0E1606C
:10EB0000A7602E700099002236480068FFF768F968
:10EB1000FEBDA260E7601BE061680120800502463F
:10EB20008A43A2600140E16010E06068012189052C
:10EB30000A468243A2600840E060E3E76068012182
:10EB400089050A468243A2600840E0600199C9E74E
:10EB5000E160A7602DE023484068FFF77FF91121AD
:10EB60008A1B01D0002807D00F22E9685205114006
:10EB7000A160E760EF60FEBD0121C905E960012ADF
:10EB80000CD91046C82148436421FCF70DFD696883
:10EB90000022414313484068FFF722F90F22E96839
:10EBA00052051140E160A760FEBD0F214905A1603B
:10EBB000E7602E70FEBD07229205AAE70D214905E8
:10EBC000A160E76001218905C2E70321C905A160B1
:10EBD000E7608910BCE70F214905B9E71020002044
:10EBE0000005005048190200F0B500210B4C0C4DF7
:10EBF00003273F048A00A258920056193268012365
:10EC00008B40034000D00323BA431B0413433360FB
:10EC1000491C0429EED30020F0BD00005419020065
:10EC20000007005010B500780221FFF7DDFD10BD90
:10EC30000022D243830004490428CA5002D3081892
:10EC4000203002777047000018280020F0B500251A
:10EC5000ED43002A02D00023042601E00423082605
:10EC60000B4C04E09F00E7597F1C04D05B1CB342AF
:10EC7000F8D32846F0BD26185DB2203635709E00C8
:10EC8000A151002AF5D1E11820310877F1E7000001
:10EC90001828002002490918202008567047000053
:10ECA00018280020F8B52348C16800293ED00E6816
:10ECB00021494C680769C078E11B0D022D0AED1C43
:10ECC000002814D101201D4A000450601B4A403A1C
:10ECD00050601B49400008601A4908601A49012029
:10ECE00008602F20FCF760FA12490120C870B54275
:10ECF00000D23546E81900020F4B000A4033186075
:10ED00000D4A5168001B091B0902090A0002000A8A
:10ED1000C91C814209D9506818602F20FCF744FAB9
:10ED200001200749400480390860F8BD01F03AFE2F
:10ED3000F8BD0000A4200020001501404013014050
:10ED400080E200E000E100E000100140F8B5064676
:10ED5000108814468446801D0D46984201D90C2027
:10ED6000F8BD32880720062AFAD31927FF01184B6D
:10ED7000BA4201D99A42F3D171880629F0D3B94237
:10ED800001D99942ECD19A4203D0994201D08A42EA
:10ED9000E6D805216046295420881221401C80B203
:10EDA000208029542088401C80B22080411930885E
:10EDB00002F020FC2188401880B220804119708820
:10EDC00002F018FC2188401820800020F8BD0000C7
:10EDD000FFFF000010B5FEF76FFF10BDF8B5164835
:10EDE00000F00AFA144D00260C3D144C002807D000
:10EDF000616900291CD001206A461070684616E03F
:10EE00002878002805D06169002911D0684606706D
:10EE10000DE0687800280DD0A1680948002200683C
:10EE2000FEF7DEFF002803D0A169002900D0884743
:10EE30002E70F8BD6168F0E75C200020DC27002020
:10EE400084190200F8B500260124154D23E06968F5
:10EE5000F0004718387821462A698140114218D0BD
:10EE60008A432A6100F076FD3A782146EB689140AA
:10EE700019400346934099420BD17978012901D07A
:10EE8000012100E000217B684140002B01D01046A9
:10EE90009847761CF6B228788642D8D3F8BD000091
:10EEA0009020002010B50E4900234A788C78A242A9
:10EEB00012D0521CD2B24A70022A00D14B704A784A
:10EEC000074B920018339A58026008691018000224
:10EED000000A0861012010BD0360002010BD000081
:10EEE000A4200020826883881A4003689A5C0A7014
:10EEF0008168491C81607047C26883881A40036832
:10EF00009954C168491CC16070470000002804D0B2
:10EF10000349496D016000207047032070470000DD
:10EF20009C290020FEB5354C002060701723344A20
:10EF30004B21344800F0A2FD0A2000F02BFC607841
:10EF40000100FDD0012857D12D48417A052953D120
:10EF50008178032950D10179FB294DD1C07A284D00
:10EF60008007800FE070A87B697B00020843FCF7F4
:10EF7000D5FD2E460190307CF17B00020843FCF762
:10EF8000CDFD0090A87C697C00020843FCF7C6FD1B
:10EF90000746307DF17C00020843FCF7BFFDFCF71B
:10EFA0006BFD00B20E2101F0E1FCA0610198FCF7BD
:10EFB00063FD00B20E2101F0D9FCE0600098FCF77F
:10EFC0005BFD00B20E2101F0D1FC20613846FCF758
:10EFD00053FD00B20E2101F0C9FC6061A87D697D7E
:10EFE00000020843FCF79AFD0B21C943FCF79AFD88
:10EFF000054902F035FCE061FEBD0000E81F00207D
:10F00000602100202419020000007042F8B5074674
:10F01000104E0125BD403068FEF720FF00280DD1BD
:10F020000D4C2069284207D1384600F093FC002897
:10F03000E06804D0284303E0A8432061F8BDA8435A
:10F04000E0602069002228432061A1683068FEF753
:10F05000C7FEF8BDF4190200902000201CB5002066
:10F0600001900090022301AA4B21104800F018FDE6
:10F070000A2000F08FFB0E4800780028FDD00DA17B
:10F080000020FEF78DF9642000F084FB002264214B
:10F09000052001F0E9FD002803D00BA10020FEF7B8
:10F0A0007FF9642000F076FB1CBD000024190200EB
:10F0B000E81F0020494D5520417661696C61626C02
:10F0C00065210D0A0000000051756174732073659D
:10F0D00074000000F8B51C4C2078002833D020695B
:10F0E000002807D00026E068002805D00025002E63
:10F0F00004D011E00126F6E70125F8E7684652DF63
:10F10000052804D0002804D0FEF7D6FD04E001262F
:10F1100002E0216900988847002D10D16088694677
:10F120000880A06861DF052804D0002804D0FEF71D
:10F13000C3FD04E0012502E0E168A0688847002ED5
:10F14000DCD0002DD3D0F8BD402100207FB50C4687
:10F150000D462035064669782878019100902246B0
:10F160002632D11E3046E36901F0B3FF002819D1E1
:10F17000E87800281DD1207B022801D0032818D16F
:10F180002269E169914214D16269E261E37B2B70EB
:10F19000217E8906C90F6970032804D031462046B4
:10F1A00001F03AFF7FBD00913146204602F014F88D
:10F1B0007FBD20460C3007C801AB07C3E8780021AB
:10F1C00000280ED00920C0013218506C506482070C
:10F1D00001D5012002E0400705D502206A461070E3
:10F1E00001E0684601702971207E4007E0D4226862
:10F1F0006846616890477FBD418805480288914212
:10F2000004D34088814201D8012070470020704714
:10F21000542000201048018CC9B2012917D1818CDB
:10F22000090714D1018D09060A0F03D1828D120638
:10F23000120F0ED0090F012903D1828D1206120F71
:10F2400007D0032903D1808D0006000F01D00020D4
:10F250007047012070470000C00F00F030B51588DE
:10F26000EC1C9C4201D90C2030BD02244C55138863
:10F270001C255B1C9BB21380CD5413885B1C9BB276
:10F280001380012807D0022807D0032807D00428BC
:10F2900007D0072030BD002004E0012002E0CC545C
:10F2A00001E00320C8541088401C1080002030BDAD
:10F2B00010B50448017AC90702D00078FFF798FB1F
:10F2C00010BD000010200020F8B52C49C8680A695C
:10F2D0000C780F7989688646944600913EE0009943
:10F2E000E20055182A7836E0182353436968521C07
:10F2F000C918AB78D2B2934200D100220B78022B0E
:10F3000002D0032B27D123E04E680346014603E0D9
:10F31000B14204D00B46C96900291CD0F8E7002986
:10F3200019D08B4208D1C069002805D1144F01269D
:10F33000BE600026B44601270E68C969D96100295C
:10F3400009D00B689B190B6005E00174C06900E0EF
:10F3500000210028F9D169789142C5D12146641E67
:10F36000E4B20029BBD1054962460A61C8600F7149
:10F37000704501D00120F8BD0020F8BDA420002078
:10F3800000100140F8B5044631480026C1680091DC
:10F3900007784EE02E48F90080680D1843E0002CF5
:10F3A00002D02046E4691FE02878182141436A68AA
:10F3B000401CC0B251182870AA78904200D12E701B
:10F3C0000A784868012A30D1027C002A2DD18A6847
:10F3D0004260CA6882600A69C260496981611C49E9
:10F3E0000979002900D04660194943680A699C469A
:10F3F000991A0902174B090A994202D282688918A0
:10F4000007E06146511A09028268090A8A4202D954
:10F41000511A016000E006604660012186600174B7
:10F42000C66101F00FFD002CB9D1287869788842B7
:10F43000BAD138467F1EFFB20028ABD10448C1685C
:10F440000098814201D00120F8BD0020F8BD0000E5
:10F45000A4200020FFFF7F00A6B00023734A0521EF
:10F460001846FEF775FC002801D0FEF725FC704A0F
:10F4700004AB07CA07C3FF2101316E480090401852
:10F4800001910391029003236B4A694604A8FEF799
:10F4900029FD002801D0FEF70FFC684A68490320C7
:10F4A000FFF756FA002801D0FEF706FC6946002057
:10F4B000FFF72AF9002801D0FEF7FEFB6846007826
:10F4C00002287DD0002168460171FFF7E5F8012090
:10F4D000014610316846017307225AA103A87CDF58
:10F4E000002801D0FEF7E8FB0024009410216846B4
:10F4F000019401803C214180FF2184809131C180B1
:10F500007ADF002801D0FEF7D7FB5048009069460B
:10F510004F48FFF737F8002801D0FEF7CDFB382120
:10F5200001A8FBF7FAFF02216846017184710521E9
:10F53000C17138210FA8FBF7F0FF012510A88581C4
:10F540004448149024211DA8FBF7E7FF20A805706C
:10F5500040202190B42022903F4B1DAA0FA9009477
:10F5600001A8FEF75FFD002801D0FEF7A5FB1C21D6
:10F570006846FBF7D2FF0520C00301900F2000046E
:10F5800002900094032168460173C48104743348D7
:10F590000590334806906846FEF73EFF002801D0EC
:10F5A000FEF78AFB01F01EFDFFF758FD0320FEF772
:10F5B0003DFE002801D0FEF77FFB264CA41F00E093
:10F5C00032E0FFF7AFFC6069FCF72CFA059104907C
:10F5D0002069FCF727FA06460F46E068FCF722FA96
:10F5E00000900D46A069FCF71DFA024618480B462C
:10F5F0001CA19C30039702960195FBF72DFE144940
:10F6000014229C311248FFF71DF8020008D01B4855
:10F61000824205D0082A03D019A10020FDF7C0FEC0
:10F620000A2000F0B7F8CAE701214CE7D4230020F4
:10F630002C190200D4210020BD130200B5E80100FE
:10F64000CD0C0000444543415F4C420035FE0100B3
:10F650009C250020EE1F00205BFE0100E1FE010062
:10F66000D5ED010025332E32662C25332E32662C43
:10F6700025332E32662C25332E32660002300000F0
:10F680004572726F723A20256400000070B514460E
:10F6900082880E4605462088111D4118921C994209
:10F6A00001D8FE2A01D90C2070BD521C325420888A
:10F6B000FF21401C80B2208031542088401C80B241
:10F6C00020808119288801F095FF2188401880B298
:10F6D0002080AA88002A09D0A968002908D08019AA
:10F6E000FBF7BCFE2088A98840182080002070BD50
:10F6F000072070BDF8B50F4601781446054601296C
:10F7000002D16878002806D02088821C9A422DD821
:10F71000012902D006E00720F8BD69784118891C4C
:10F72000994223D8181A801E86B26846068021881E
:10F73000B81C081869467DDF0028EDD1287802281A
:10F7400005D169460988B14201D809210AE008219A
:10F75000012805D16878B04202D86A46108001E0DD
:10F760006846068068460088FE2801D90C20F8BD4E
:10F770002288401CB8542088401C80B22080395414
:10F7800020886946401C208009884018208000207D
:10F79000F8BD000031B5054C04E0401E0090204645
:10F7A000FBF7E2FC00980028F7D138BDE703000022
:10F7B0008207D30EFF229A408907090E10B599409F
:10F7C00000280BDA03071B0F083B9C080C4BA40016
:10F7D000E318DC6994430C43DC6107E08408094BBF
:10F7E000A400E418236893430B432360C106C90EA9
:10F7F00001208840044908600449086010BD0000E9
:10F8000000ED00E000E400E080E200E000E100E064
:10F81000F3B581B00F46019800F07EFB012400286B
:10F820001E4E019817D0FFF735FA80192030007F5F
:10F830008009032802D0012806D007E01848006993
:10F8400001998C40204201D1022100E0032101985E
:10F8500000F0BCFAFEBD00F06BFB0028FAD0019866
:10F86000FFF718FA05468100C81D0E4AF9308918BD
:10F870000A6980B222430A610B49401800210160E5
:10F88000002FE7D00198FFF705FA800030580028D4
:10F89000E0D00648AC404460FEBD000018280020BF
:10F8A000000500500065004000600040006300401B
:10F8B000FEB5044623480E46001920214156002774
:10F8C000C8171346401C01D0082738E0F2781946C3
:10F8D0002046FFF7BBF90546401C2FD0B078002822
:10F8E00007D01948A100091808680222904308604F
:10F8F00007E000217378204600910A46019100F04C
:10F900002DFAF078002810D01048AA00101831788D
:10F9100002690F4B1A400261E206D20C8907890B7B
:10F920000A4301690A43026109E006483278401936
:10F930002030017F92011143017700E0042738460F
:10F94000FEBD0000182800200007005000650040A0
:10F95000FFE0FCFF03490969C140C807C00F00D0A0
:10F96000012070470005005070B5124D287900281D
:10F9700001D0082070BD0F4900204039421E0B18ED
:10F980002033401CC0B21A702028F8D3002420462F
:10F99000FFF74EF9641CE4B2082CF8D303210620CB
:10F9A000FFF706FF01200449C007486001202871C5
:10F9B000002070BD582800200063004002480079F4
:10F9C000002800D001207047582800200179282203
:10F9D0005143054A0068891805221302C0180260C5
:10F9E000022020318870704754290020F8B507465E
:10F9F0000C46007928211D4D41434D192E462036D5
:10FA0000B178002901D00820F8BD002C02D1184996
:10FA1000000144180CC50020286070713071214627
:10FA20003846083D01F06EFA2068124982001248FB
:10FA3000121811606268920010180160052338687E
:10FA40001B0206CCC0188160C26021684162286830
:10FA5000083C002805D03868217B000B40B2FFF736
:10FA6000A7FE0120B0700020F8BD0000542900203E
:10FA7000D81902000C060000000700503EB5074DE3
:10FA80002C69AD69009402956C466170A370019277
:10FA90000022694600F016F83EBD0000D8190200A9
:10FAA0003EB50025069C009502956D466970AB70C9
:10FAB0000192002C01D0202200E00022294600F013
:10FAC00001F83EBD70B50D46017928235943064B18
:10FAD000CC18910701D0062070BD134601682A4654
:10FAE000204601F0BFFB70BD54290020F3B52A4C1D
:10FAF0000746E07E81B0002801D00820FEBD002F1F
:10FB000000D1264F01263878314681402448816053
:10FB1000386800F050F90021786800F043F9214D71
:10FB2000B8696862787D397D0843E86603CFE8608C
:10FB30006961387B083F01280FD10021B86800F0C7
:10FB400031F9387B3146814015488160F86800F012
:10FB500032F9F968B868A96028610298606039696B
:10FB6000216000280ED0FF230F481D33397F00226B
:10FB7000C250FF234533C2500D4A0C48506002204A
:10FB8000FFF716FE042028600020E0752076A0759F
:10FB9000E676A076FEBD000060280020B8190200BD
:10FBA00000050050002500400020004080000200B9
:10FBB00000230040F8B5104B81245E680022A400A9
:10FBC0000E4D002E00D0AC60DF7D002F0BD01A7ED2
:10FBD000002A04D0002E00D06C601120F8BD1861FE
:10FBE0000122197604E0D9750024D8605C761C7671
:10FBF00000F012F8F8BD000060280020002300404B
:10FC000010B5044CA07E002803D100F067FF01204E
:10FC1000A07610BD60280020F8B5234DA87E1043C3
:10FC200001D100F05BFF6868204C002805D08120DE
:10FC30001F49800048600020F8BDFF2045300021AA
:10FC40002150FF212531204600F0E7F80546FF212D
:10FC50000931204600F0E1F80746FF2145312046F2
:10FC600000F0DBF80646394631432943E9D02846FF
:10FC7000304306D100F0B8FE0B48C17D407E814282
:10FC8000DFD800210848002DC17501D00320F8BD40
:10FC9000002E01D00F20F8BD817E0120002901D067
:10FCA0002060C8E76060C6E76028002000200040B0
:10FCB0000023004010B5034600F048F8002801D0AA
:10FCC000112010BD034A002091759360908200F0CE
:10FCD00003F810BD60280020F8B50026194FFF2555
:10FCE0001D357E510120B86001F002FB164C6168A1
:10FCF000002910D022E0FF2701372946114800F0E3
:10FD00008CF8002802D1A08AB842F6D1A08AB84265
:10FD100001D001F0EDFAA08AA17D8842EBD3A18A3F
:10FD2000C81FF9380CD0074F2946384600F075F83F
:10FD30000028F9D00120F8600020A0753046F8BDF9
:10FD40000F26F9E700200040602800200248807D4F
:10FD5000002800D0012070476028002030B55200F4
:10FD60000A439900039C0A432102049D0A43290483
:10FD70000A43024980004018026030BD000700506D
:10FD800030B552000A439900039C0A432102049DA6
:10FD90000A4329040A43024980004018026030BD2A
:10FDA000000700501CB500220B460092114601923C
:10FDB000FFF7E6FF1CBD1CB5002100910B46012298
:10FDC00001911146FFF7DCFF1CBD000082000648D0
:10FDD0001018026803231B049A4302600268090496
:10FDE0000A43026070470000000700500121814073
:10FDF0000148816070470000000500500349401829
:10FE00000068012800D0002070470000006000401A
:10FE10004058002800D0012070474058002800D0EA
:10FE2000012070470322120280184068084000D069
:10FE30000120704770B516460D46002405E0285D88
:10FE4000FEF7A0F80028FAD1641CB442F7D30A20C8
:10FE5000FEF798F80028FAD170BD10B5002809D037
:10FE6000032806D10220FEF765FD002801D0FDF72A
:10FE700023FF10BD00F01EFF10BD000070B501880B
:10FE8000164D0446102910D0112917D02846808815
:10FE900013291ED0522907D100231A461946A9DF7B
:10FEA000002801D0FDF708FF70BD0720FEF742FDD6
:10FEB000002801D0FDF700FFA08808E00020FEF731
:10FEC00039FD002801D0FDF7F7FE0020C043A880CF
:10FED00070BD00231A4685217FDFE1E7E81F00207F
:10FEE00010B50078002807D104483B21808876DFD0
:10FEF000002801D0FDF7E0FE10BD0000E81F002043
:10FF00000021425C002A01D001207047491C0629CB
:10FF1000F7D30020704700000449081820214156FB
:10FF2000042901DB012070470020704718280020B9
:10FF30000449081820214156042901D201207047A4
:10FF40000020704718280020F0B51FB496B08446F2
:10FF50000C460246199D18980390490068006300FA
:10FF6000490840080193002A01D0012600E000263C
:10FF70009E19FE4BF6185B109E422BD36E00039F1A
:10FF80000296002F00D00127F719F84EF84BBE1942
:10FF90009E421FD3039E0346F64F334309D03B4690
:10FFA0009C4201D1002A04D0019B002A05D00126E1
:10FFB00004E0002039461BB0F0BD00269E19EE4B30
:10FFC0009E4207D8039F029E002F00D00127F619FA
:10FFD0009E4207D92B4660462146189AFDF7B4FC8D
:10FFE0001BB0F0BD0023002C29DAE44EB04226DA23
:10FFF000E34EB04201DB022321E0DE4EB0421EDBC5
:020000040002F8
:10000000E04E070DBE19142E09DD3427BF1B039ED9
:10001000FE400196BE40039FBE420BD00FE0039FFF
:10002000002F0CD11427BF1B0646FE400196BE4090
:10003000864204D1019BDE07F60F02239B1B0E466E
:10004000164318D1002D16DA002C03D0022B01D054
:10005000012B06D00220FBF78DFDFDF76BFC1BB0DA
:10006000F0BD0220FBF786FDFDF764FC0122D207FC
:1000700051401BB0F0BD039E002E61D1BF4EB04277
:1000800020D1C148844201D1002A08D0B948814218
:1000900009DB002D10DB189829461BB0F0BD0020AD
:1000A000B4491BB0F0BD002D06DA01222946D20763
:1000B000189851401BB0F0BDB449794408684968AC
:1000C0001BB0F0BDAB4FB84225D1002D1FDA00297F
:1000D00004D0B14212D1002A09D018E0002A72D10E
:1000E000A649E20F0020D20711431BB0F0BD00204B
:1000F000E20F0146D20711431BB0F0BDB14206DA50
:10010000234600203946FCF70FF91BB0F0BD10461E
:1001100021461BB0F0BDB14212DA0126B607B54246
:1001200003D1234610461946FEE3994EB54207D146
:10013000261E05DB1046314600F016FE1BB0F0BD52
:1001400067007F081646002A40D100290AD08B4A52
:10015000914229D1002C0EDD002D1CDB0020114620
:100160001BB0F0BD022B16D0002C14D0012B12D1E5
:10017000002C14DB0FE0002C28DA002D09DB012B0A
:1001800003D000207D491BB0F0BD002081491BB089
:10019000F0BD012B03D0002001461BB0F0BD0020B4
:1001A0000121C9071BB0F0BD724A91420ED1002C4B
:1001B00001DA002B17D0022B06D00020C043FBF73A
:1001C00002FB1BB0F0BD90E20120F8E7E217521CE1
:1001D00094461A4307D000220892664C62465B1E82
:1001E0001A4307D009E00120FBF7C4FCFDF7B0FB80
:1001F0001BB0F0BD0022644C0892674A90427DDD3E
:10020000664B674A98421FDD914202DC002D05DBF8
:100210004DE05848814217DB002D48DD0220FBF7F6
:10022000A9FCFDF79DFB05460E460022534B2146D7
:100230000898FBF7D3FA084671004908C00FC007B9
:10024000014328461BB0F0BD914215DA002D2EDA8D
:100250000220FBF78FFCFDF783FB05460E460022CC
:10026000464B21460898FBF7B9FA72005208C80FAE
:10027000C0070243114617E03E4B994223DD002D93
:1002800015DD0220FBF776FCFDF76AFB05460E46FE
:1002900000223A4B21460898FBF7A0FA0846710065
:1002A0004908C00FC007014328461BB0F0BD02201B
:1002B000FBF760FCFDF75EFB49004908E20FD2073F
:1002C00011431BB0F0BD002230463946FCF709F857
:1002D000012205460E46D243FCF74AFA314A324B18
:1002E000FCF70AF82A463346FBF778FA0022284B37
:1002F000FCF702F807462A46334600E064E0039123
:1003000010461946FBF76AFA3A46039BFBF766FA72
:100310000746032209915207244B28463146FBF732
:100320005DFA07910C90224A204B38460999FBF759
:1003300055FA074601911F4A1F4B28463146FBF7E5
:100340004DFA3A46019BFBF7CCFF07460B460246A7
:10035000099107990C98FBF7B7FF00250E46284630
:10036000079B0C9AFBF7BDFF3A4627E0FFFF1F00F3
:10037000FFFF0F000000F03F0000E0FF0000F07FF3
:100380000000404301FCFFFF0000F0BF6A1A0000BC
:100390000000E03F0000F0FF0000E0410000F043FB
:1003A000FFFFEF3F555555555555D53F4715F73F7D
:1003B000FE822B6544DF5DF80BAE543E099BFBF7D4
:1003C0009BFF02460B4652E1012500202D05A94264
:1003D00007DA352230463946FCF7CAF9064634209A
:1003E000C0430A151218FE48101803900803FD496F
:1003F000000B01430F46FC49884201DC002003E06A
:10040000FA49884202DA0120119005E0002011909B
:100410000398401C7F1B039011980597C200F44875
:100420000F927844801843680268394630460D932D
:100430000292FBF756FF07910C9030460D9B029AF3
:100440000599FBF741FF02460B460020E549FBF703
:100450006BFF09910490079B0C9AFBF7BFF9129070
:1004600000201090E3480D46784400680E9001216A
:1004700078104907084311990D9B89044018012100
:10048000C90447183946029A0E98FBF72AFF3246EC
:10049000059BFBF731FF02460B4629461098FBF7F8
:1004A0009DF9064602913B4629460E9A1098FBF7A5
:1004B00095F9079B0C9AFBF71FFF3246029BFBF74F
:1004C00010FF099B049AFBF789F90591129A0A908B
:1004D0002B4610461946FBF781F906460246C648E8
:1004E0000F460B4606217844FDF7CEF932463B46CF
:1004F0000091049010461946FBF770F9009B049A8E
:10050000FBF76CF906460F462B461946129A1098CF
:10051000FBF7DAFE059B0A9AFBF760F932463B4689
:10052000FBF7D2FE109A079104902B46104619460D
:10053000FBF754F9B14E0022334609910290FBF7C4
:10054000C3FE079B049AFBF7BFFE00200746024646
:1005500033460091FBF7C5FE099B029AFBF7C1FEEB
:10056000079B049AFBF7C8FE06460D913A462946BA
:10057000009B1098FBF732F907910C902B46304600
:10058000129A0D99FBF72AF905460E463A46009B4A
:1005900005990A98FBF722F933462A46FBF794FEA1
:1005A00002460B460746099107990C98FBF78CFE0B
:1005B00000250E462846079B0C9AFBF792FE3A460A
:1005C000099BFBF799FE07460722099152078C4BBE
:1005D00031462846FBF702F907910090894A884B7B
:1005E00038460999FBF7FAF807460191864A874B86
:1005F00031462846FBF7F2F83A46019BFBF764FECA
:10060000834B7B440F9A9B181A685B68FBF75CFE70
:10061000029009910398FBF7D6F805910490099B85
:10062000029A07990098FBF74FFE7A4B7B440F9A8A
:100630009B181A685B6817460393FBF745FE059BFA
:10064000049AFBF741FE0E462846059B049AFBF7E9
:1006500048FE3A46039BFBF744FE079B009AFBF7D4
:1006600040FE099B029AFBF747FE02460B4619998A
:1006700000200C900F461898FBF7B0F802910490F8
:100680003B460C9A19991898FBF72BFE2A463346DD
:10069000FBF7A4F8029B049AFBF716FE09910E9053
:1006A0002A46334639460C98FBF798F806460F461B
:1006B000099B0E9AFBF708FE574A0D46914220DB34
:1006C0005242AA18024310D132463B46FBF709FEBC
:1006D00004900391514A524B09990E98FBF7F4FD8F
:1006E000039B049A01F088F81ED20220FBF742FA1D
:1006F000FDF736F949004908E20FD20711431BB054
:10070000F0BD6A00474B52089A420DD3464AAA18D8
:10071000024300D0CBE532463B46FBF7E2FD099BA6
:100720000E9A01F069F8F5D96800002340082C49B9
:100730000393020D3D4B5218984223DD0120000522
:10074000521CD04042195000400D4018384979449D
:10075000096813468C463749C1408B431203012177
:10076000120B090551181422101AC1400391002DD3
:1007700001DA48420390624630463946FBF7B1FD44
:1007800006460F4632463B4609990E98FBF79CFDFC
:1007900000252A46284B28460591FBF71FF80791AC
:1007A0000C90264A264B28460599FBF717F800912E
:1007B000029032463B4628460599FBF792FD099B7D
:1007C0000E9AFBF799FD1F4A1F4BFBF707F8009B9A
:1007D000029AFBF779FD07460B460246099135E080
:1007E00001FCFFFF0000F03F8E9803007AB60B007B
:1007F000FA150000BC160000661500000000084055
:1008000009C7EE3FFD033ADCF5015B14E02F3EBE65
:100810003A1400000014000000009040FE822B6596
:100820004715973C00CC904000346F3F0000E03FFC
:10083000D6130000FFFF0F00432EE63F396CA80CD3
:10084000615C20BEEF39FAFE422EE63F07990C9814
:10085000FBF73AFD05460E46079B0C9AFBF741FD58
:100860003A46099BFBF748FD09912A4633460E900C
:1008700010461946FAF7B2FF074602462F480B46C4
:10088000059105217844FCF7FFFF3A46059BFAF7EE
:10089000A5FF2A463346FBF72FFD07460191284660
:1008A0003146099B0E9AFAF799FF099B0E9AFBF7BE
:1008B0000BFD012304910C9000229B0738460199FF
:1008C000FBF70FFD05910E903A4628463146019BF5
:1008D000FAF784FF059B0E9AFBF726FD049B0C9A02
:1008E000FBF7FFFC2A463346FBF7FBFC0022144BC8
:1008F000FBF702FD064603980D4600054119091550
:10090000002912DC30462946039AFBF731FFFCF739
:10091000A5FF042801D1FDF72DF830462946039A9A
:10092000FBF726FF064601E004E029180B46324695
:1009300021460898FAF752FF1BB0F0BDF8110000ED
:100940000000F03F07490979490701D408207047A2
:10095000002804D0044949780160002070470E2027
:10096000704700006C2000207C28002070B50C46E9
:10097000FBF7CCF806466042FAF725FF0B46024625
:10098000012100208907FFF7DFFA05460C463046B3
:10099000FBF748F82A462346FAF720FFFAF7B4FE99
:1009A00070BD000070B501240B49600408600B495C
:1009B00040108860094940398860094D6C602F20DB
:1009C000FAF7F2FBAC60074D00242F202C61FAF7F8
:1009D000EBFBEC7070BD000080E100E040130140D3
:1009E00000100140A420002030B50A48FF21C57D39
:1009F0000022094C0931094B002D625007D099693A
:100A0000437EC268D154417E491C417630BD98690D
:100A100030BD00006028002000200040002500407C
:100A200070B500240546601C90B00007000F08A9AF
:100A3000103008940870601C0007000F10304870D8
:100A40008878F9263040801C88701C2101A8FAF7AC
:100A500064FD6946087910210843694608710294CB
:100A600008A80494059407940690287808A988712A
:100A700003206946888411200094087048708878A3
:100A8000F7213040801C0840EF2108400126304308
:100A90006946887014210AA8FAF73FFD09A80A9050
:100AA00068460B9069460E8614204C8688862B4635
:100AB00068880C330AAA01A9A2DF10B070BD00003B
:100AC0001FB501236A46137010720348019106C8CE
