:020000040001F9
:10B00000683E002009B2010023B2010025B2010010
:10B010000000000000000000000000000000000030
:10B0200000000000000000000000000027B2010046
:10B03000000000000000000029B201002BB2010056
:10B040002DB201002DB2010005D7010029D6010063
:10B050002DB201000000000039D201002DB2010024
:10B060002DB201002DB201002DB201002DB2010060
:10B070002DB201002DB201002DB201002DB2010050
:10B080002DB20100D1D301002DB201002DB201007B
:10B090003DD601002DB2010045D601002DB20100C0
:10B0A0002DB201002DB201000000000000000000E0
:10B0B0000000000000000000000000000000000090
:10B0C00000F002F800F045F80CA030C80838241849
:10B0D0002D18A246671EAB4654465D46AC4201D1D0
:10B0E00000F037F87E460F3E0FCCB64601263342BD
:10B0F00000D0FB1AA246AB4633431847D469000080
:10B10000F46900000023002400250026103A01D332
:10B1100078C1FBD8520700D330C100D50B6070470F
:10B1200010B5662902D106F075FB10BD642902D165
:10B1300000F0D4F810BD002010BD1FB501F0CCFB0D
:10B1400004000020002106F01BFBE0601FBD10B5CD
:10B1500010BD01F0CFFF1146FFF7EFFF04F0A4F898
:10B1600001F0E7FF03B4FFF7F2FF03BC02F083FC3A
:10B17000401E00BF00BF00BF00BF00BF00BF00BF38
:10B1800000BF00BF00BF00BF00BFF1D1704700008B
:10B19000401E00BF00BF00BF00BF00BF00BF00BF18
:10B1A00000BF00BF00BF00BF00BFF1D1704700006B
:10B1B000401E00BF00BF00BF00BF00BF00BF00BFF8
:10B1C00000BF00BF00BF00BF00BFF1D1704700004B
:10B1D00070B505460C46164602E00FCC0FC5103E72
:10B1E000102EFAD2082E02D303CC03C5083E042E3B
:10B1F00007D301CC01C5361F03E021782970641CF8
:10B200006D1C761EF9D270BD03210C4802680A43FA
:10B2100002600B4802680A4302600A4880470A48F5
:10B220000047FEE7FEE7FEE7FEE7FEE7FEE7000079
:10B2300006480749074A084B7047000024050040AC
:10B240005405004065D60100C1B00100682E002001
:10B25000683E0020683600206836002070470000F5
:10B260000FB41CB5084B06AA7B44694600900598AC
:10B2700000F005FF04460020694600F013FF204659
:10B280001CBC08BC04B01847390E000070B5044659
:10B2900085690068C10601D5302600E02026C00778
:10B2A00007D070BD62683046A1689047206A401C94
:10B2B00020626D1EF6D570BD70B5044685690078B4
:10B2C000C00707D170BD6268A16820209047206A3E
:10B2D000401C20626D1EF6D570BD0000F7B500253C
:10B2E00075291068009914A611D0C046C0460028E0
:10B2F00002DA404211A608E0009909688A0701D5E0
:10B300000FA602E0490704D50EA6012501E0C046BC
:10B31000C046009F0024243704E000F0C8FE30310E
:10B320003955641C0028F8D12B4632462146009836
:10B3300000F03DFCFEBD0000000000002D000000FC
:10B340002B00000020000000F3B50446002081B06F
:10B3500020622046E1688847002872D0252802D064
:10B360006268A168ABE0594F00267F442046E1683F
:10B3700088472028054608DB312D06D27819203869
:10B380000078002801D00643F0E7B00701D504207B
:10B3900086430020E0610746A0612A2D0AD0284696
:10B3A00002F062FB002827D0B8000019303D009061
:10B3B000856119E00298BA00121902C891610290E1
:10B3C0002046E1688847012F054617D1E06900282B
:10B3D0001FDA202086431CE000980A218069484338
:10B3E00000994019303888612046E1688847054651
:10B3F00002F03AFB0028EFD1012F0AD02E2D08D100
:10B400002046E16888470546202006437F1C022F1E
:10B41000C3DBA069002803DA4042A0610120064393
:10B42000F00701D0102086436C2D0BD0682D09D079
:10B430004C2D3CD06A2D38D0742D38D07A2D36D092
:10B4400016E040E0E1682F4620468847B8420546AE
:10B4500009D16C2F29D001208002E16806432046E3
:10B460008847054604E06C2F1DD0FF2001300643BD
:10B47000002D28D028464138192803D80120C002C1
:10B4800006432035204626602946029A1646FFF7D5
:10B4900047FE002810D001280BD0F61DF008C00090
:10B4A0000830029055E74020E1E78020D5E70020F2
:10B4B000D3E7361D02964CE762682846A16890479C
:10B4C000206A401C44E7206AFEBD00009A65000027
:10B4D000F8B5042A2CD3830712D00B78491C0370CB
:10B4E000401C521E83070BD00B78491C0370401C74
:10B4F000521E830704D00B78491C0370401C521E57
:10B500008B079B0F05D0C91ADF002023DE1B08C95B
:10B510000AE0FFF75DFEF8BD1D4608C9FD401C4668
:10B52000B4402C4310C0121F042AF5D2F308C91AE4
:10B53000521EF0D40B78491C0370401C521EEAD4F2
:10B540000B78491C0370401C012AE4D4097801706F
:10B55000F8BD01E004C0091F0429FBD28B0701D507
:10B560000280801CC90700D00270704700290BD0F0
:10B57000C30702D00270401C491E022904D383076E
:10B5800002D50280801C891EE3E70022EEE700223C
:10B59000DFE70000024670B50A4392072AD11E4D2C
:10B5A000EE0104C808C9541B9443344017D0D0B2EC
:10B5B000D9B2401A2106014310D190B299B2401A73
:10B5C000210401430AD110021902000A090A401A93
:10B5D0002102014302D1100E190E401A70BD9A4289
:10B5E000DFD010BA19BA884201D9012070BD0020FD
:10B5F000C04370BD02780B78401C491C002A09D05A
:10B600009A4207D102780B78401C491C002A01D0CD
:10B610009A42EFD0D01A70BD010101010022030946
:10B620008B422CD3030A8B4211D300239C464EE05D
:10B6300003460B433CD4002243088B4231D3030919
:10B640008B421CD3030A8B4201D394463FE0C309CB
:10B650008B4201D3CB01C01A524183098B4201D3E3
:10B660008B01C01A524143098B4201D34B01C01ACE
:10B67000524103098B4201D30B01C01A5241C30846
:10B680008B4201D3CB00C01A524183088B4201D3B5
:10B690008B00C01A524143088B4201D34B00C01AA1
:10B6A0005241411A00D201465241104670475DE0B6
:10B6B000CA0F00D04942031000D340425340002239
:10B6C0009C4603098B422DD3030A8B4212D3FC22E2
:10B6D000890112BA030A8B420CD3890192118B4261
:10B6E00008D3890192118B4204D389013AD0921177
:10B6F00000E08909C3098B4201D3CB01C01A524132
:10B7000083098B4201D38B01C01A524143098B42FA
:10B7100001D34B01C01A524103098B4201D30B01E3
:10B72000C01A5241C3088B4201D3CB00C01A524108
:10B7300083088B4201D38B00C01A5241D9D24308EF
:10B740008B4201D34B00C01A5241411A00D201462C
:10B75000634652415B10104601D34042002B00D596
:10B760004942704763465B1000D3404201B5002058
:10B77000C046C04602BD7047704770470246C80FBA
:10B78000C00781434B0030B54B405B009B0D20D080
:10B790001923DB06C91801231B05994220DB03246A
:10B7A000A40704251346AB400BD3002B04D1EB06B2
:10B7B00013409B00E34204D40124640700231219C0
:10B7C0005941FF231B0599420BD2C9000143500F79
:10B7D00009E0CB0204D501430803024305D0054824
:10B7E00030BDFF21C905084330BD084607210905C2
:10B7F000884330BD0000C07F1F22030C02D10F22FE
:10B80000000402D0030E03D004E00020014670477C
:10B810000002083A030F01D10001121F830F01D16A
:10B820008000921E002801DB4000521E12055118B4
:10B830004205C012411810467047C10FC90700D019
:10B840004042012292071143D6E701218907D3E73D
:10B85000F0B58B4C0F09254689B0BD437BD01D093F
:10B860002646AE43FAD00E465E402740F60F3E43D2
:10B87000254071D024012142FBD0FF24AD19A4043E
:10B880002D1B039501252D05DB02DB0AC9022B4385
:10B89000C90A29431E010901040F130F05012143A1
:10B8A0001701880B820391432D098C46A90B1E4377
:10B8B0008A039543B30B9A0396433F09BA0B94034B
:10B8C000A74302962E467E430497B6464E19D719D3
:10B8D0000C460196544305977E43371B7646BF1BA3
:10B8E0003601B646BE0B361900967646BC043719AB
:10B8F000009C01D3641C00946400002F01D0012639
:10B900003443029E049F754366467E430496760048
:10B9100034196E0034190094029C019E1C19664370
:10B92000751BAE46069465464519059C05956C4306
:10B93000594375460891691A0191049E0146514385
:10B94000A41B0491611A009C0791E10605D06109CE
:10B950000122114302E072E06EE06109089D0027B8
:10B960002C0A2D066918049D7C412A0A2D066918A7
:10B97000019D6241AC0DAD026D185441079A910DC5
:10B98000920255196141029A644658435443069BFA
:10B99000059A5A43121A131B9A0E9B015B187A419F
:10B9A000010B0005C3185141220A200644195A41CF
:10B9B0009A4200D2491C01204002814203D3152340
:10B9C0000226F64302E014230326F6432020C51A7C
:10B9D000A9401746AF40DA400A4320460399D840B1
:10B9E0000914731819055118039A3843D2075140A6
:10B9F000AC4009D00122944006D30022401C5141A2
:10BA0000002C01D1400840001E4A934212D301226B
:10BA100003989206904207DB0520400709181A4850
:10BA20000143C012414004E0032040070818C10F41
:10BA3000C907002009B0F0BD0020F107FAE705189A
:10BA40000C464C4111486D42A04115D394181A463A
:10BA50005A410E48644290410ED301204A004005ED
:10BA6000824209D35A00824206D35940C90F084A7C
:10BA7000C90700201143DDE700200649DAE700008E
:10BA80000000FF07FE070000FFFFFF7F0000E0FF50
:10BA90000000F07F0000F87F0121C9050123411853
:10BAA00042001B06D3185B0E0AD0C1100722D20633
:10BAB000891840075242D14201D552008918704777
:10BAC000090208D50146002A03D0C10FC90700208A
:10BAD000704710467047420202D00020024970476A
:10BAE000072109050143F4E70000F87F10B501467E
:10BAF0009E240002CA15A307002A02D01843002A78
:10BB000004DBA21A002A0CDDD04010BD1206120E72
:10BB100001D140004008A21A03D4D040404200287E
:10BB2000F3DDFF2248001206904201D9002010BD2B
:10BB3000C817C043584010BD1F22030C02D10F226A
:10BB400000041CD0030E01D10002083A030F01D1FA
:10BB50000001121F830F01D18000921E002801DB1B
:10BB60004000521ED205511802125118192290405D
:10BB700004D3491C002801D14908490008467047F0
:10BB8000C10FC90700D04042012292071143D3E7F9
:10BB900001218907D0E7704710B500F0A1FE0068C9
:10BBA00010BD10B5044600F09BFE046010BDFFB54B
:10BBB00004460D4681B0243000902168880604D5E3
:10BBC0001022E0699143216000E00120A84201DDDC
:10BBD000471B00E000270498A1697A191018081A79
:10BBE000A0612078C00602D42046FFF74FFB002654
:10BBF00008E003986268A168805D9047206A401C55
:10BC0000761C206204988642F3DB2078C0060AD5B1
:10BC10002046FFF73BFB06E06268A16830209047B2
:10BC2000206A401C206238467F1E0028F4DC07E0B2
:10BC300000986268A168405D9047206A401C2062BD
:10BC400028466D1E0028F3DC2046FFF735FB2078E0
:10BC5000000602D5022005B0F0BD0120FBE7000080
:10BC60007047FFB50C461E468FB003CA0890099175
:10BC70004F007D0D00D16D1E002108460020C046FA
:10BC80000321099A89050840002A03DA82008018F6
:10BC900040080840800D01280A9002DD0020C043C2
:10BCA0000A90089807430DD0EF48F04928184843F8
:10BCB0000714189800281DD07542291E1DDD0A980A
:10BCC00042421BE01898012802D00020302104E0F5
:10BCD0000020F24305E02154401CB042FBDB30461B
:10BCE0000022189B002121540F998B600A60486044
:10BCF00013B0F0BDBD1B6D1CDFE70A9A002900DA06
:10BD000069420BA800F072FE0BAB07CB03AB07C375
:10BD10000899099800F0CEFE6B4607C30146D44847
:10BD20000918002D00910ADDD14903980A9A494269
:10BD3000401803A90390684601F0E1F807E0039971
:10BD40000A9A081803A90390684601F0AEF86B46FA
:10BD500007C30004000C03D00020C043410800E0EA
:10BD60001046189A002A03D00022009215461EE0C1
:10BD7000751E05D400F0B8FD303262556D1EF9D540
:10BD800001220843079602D000227F1C04E020789D
:10BD9000302801D100227F1E002A069789D01EE09C
:10BDA000112D07DA00F0A0FD303262556D1C0246FD
:10BDB0000A43F5D1084303D00098002819D00EE0BB
:10BDC0000021681E05E0235C625C63542254401E1F
:10BDD000491C8142F7DBA81B401E07950690079A75
:10BDE00018990020A0540F98079B069A81600CC0F8
:10BDF0007EE71126002018905BE7D21DF0B50D46B6
:10BE00000446D10893B0C90003C90C900D9101F00C
:10BE100095FD02460D98C00F01D02D2007E0206847
:10BE2000810701D52B2002E04007C00F4001032A03
:10BE30000F9001D0072A05DB03462946204600F073
:10BE400091FD0EE12078800601D5E76900E0062724
:10BE50002846652D04D0662814D0672D69D12DE0C1
:10BE60000020112F009001DB112300E07B1C0CAAA5
:10BE700003A910A8FFF7F5FE1199002610987D1C64
:10BE80000E9142E001203B460CAAC0070B90012016
:10BE9000009003A910A8FFF7E4FE119D12981099D5
:10BEA000002600280E9501D1781C0D18781B02D4AD
:10BEB00046427D1C761EE81B00903AE0012F00DA16
:10BEC00001270020112F009001DD112300E03B46E7
:10BED0000CAA03A910A8FFF7C4FE11993D461098BB
:10BEE00000260E91217809070BD40E99A94200DA99
:10BEF0000D4603A9012D04DD4A19203AD27F302ACC
:10BF000006D0B84201DA011D04DA012100910FE0E8
:10BF10006D1EEFE7002802DC86192D1A03E0411C94
:10BF2000A94200DD0D46801B401C00900120C00787
:10BF30000B902078000705D40098A84202DB00206F
:10BF4000C043009069460020C8720B98012102AFDF
:10BF50000337C907884225D0022010902B2011906A
:10BF60000B9800280BDA40420B902D20119006E030
:10BF70000B9800F09CF830317F1E0B9039701099AF
:10BF8000481E00291090F3DC0B980028F0D111987E
:10BF90007F1E38702088000501D5452000E065200F
:10BFA0007F1E387001A8C01BC01D0B900F98002881
:10BFB00000D0012041190098C01709180B980818E3
:10BFC000A169081A401EA0612078C00602D420464C
:10BFD000FFF75CF90F98002805D06268A1689047C8
:10BFE000206A401C20622078C00625D52046FFF735
:10BFF0004DF921E0002E07DB0E98B04204DD03A8C6
:10C000006268805DA16802E06268A16830209047A4
:10C01000206A761C401C20620098401E0028009078
:10C020000AD100F059FCC06862680168405CA168F0
:10C030009047206A401C206228466D1E0028D9DCEB
:10C0400007E062683878A1687F1C9047206A401C2E
:10C0500020620B99481E00290B90F2DC2046FFF766
:10C060002BF9032044E6000001FCFFFF104D000007
:10C07000E1DFFFFF01694A1C02610878704700B5E3
:10C080008FB00291002105910549019379440391F4
:10C09000114604906846FFF757F90FB000BD000045
:10C0A000E5FFFFFF0A681070521C0A6070470146E6
:10C0B0008008081A02091018020A1018020C101839
:10C0C000C008820012185200891A01E0401C0A3987
:10C0D0000A29FBD270470000F0B50C46871A9C4134
:10C0E0000D46861A9D4103D2C01BA141D21963415E
:10C0F0000D0D1F0DC94EEC1BAE435CD07F057F0DAF
:10C100000026002F51D02D05AC46A943DD020123A6
:10C11000ED0A1B051D4320231B1B24D41746E740B3
:10C12000381871412F46E740CC199D4028183146F8
:10C1300061410C0D27D161449A4013D50023401C66
:10C14000594152000ED14008400001224B005205D7
:10C15000D34207D305204007C14201D5B04900E0D2
:10C16000B0493046F0BD6B00002A00D001229A1879
:10C170001F23203C1B1B01D5002302E0E5402818AB
:10C1800071410C0DD7D0012424050919C407CD072E
:10C1900040084908E40F28436144002CD5D000240E
:10C1A000401C61419A40D0D1CDE76A05520DD9D1EA
:10C1B000C90FC907D5E79C4D4E00002801D00124C6
:10C1C00000E0002434195F00002A01D0012600E0BD
:10C1D0000026BE19954FAC420CD8AE420AD8B442E4
:10C1E00006D001256D05EC42BCD010461946F0BDC5
:10C1F0009942FCD000203946F0BDF0B51FB40C4682
:10C200000F46811A9F412546861A9D4106D2012577
:10C21000ED076F40401ABC4152187B41210D1E0DA5
:10C220008D1BAC467D4D8D437ED075056D0D7CD04C
:10C230000D05AE46AC431B031B0B794D52429D418D
:10C24000202366469B1B14D31746F7403818002658
:10C250000090744160462F460741E41900989D40C4
:10C260002818664116D4714671189A4025D50123C5
:10C2700020E093182A466A415200002B00D0521C3D
:10C280001E23203E9B1B002B61DD3541EE17281835
:10C290006641E8D5001876415B1C9A4000D3401CEB
:10C2A0004B05F3181524E34010D3002B52D07146F0
:10C2B0007118D30FC01802D3491C05B0F0BD01237B
:10C2C000DB079A42F9D140084000F6E70122520507
:10C2D000B21801D1002853D00123CC0ADB029943C4
:10C2E000891E002A08D1020C03D0020C0004103968
:10C2F00002E00246002020390023550B05D112022E
:10C300000823550B01D152010D23550C01D1120107
:10C310001B1DD50C01D192009B1C150D01D15200A3
:10C320005B1C2025EE1A01E02CE022E00546F540DA
:10C3300015439840CA1AE10769181305C918002A5D
:10C34000BBDA032040070818C10FC9070FE0714688
:10C350006118B2E7F10740080843711071444A00C0
:10C360000CD001235B059A42A7D2C90FC907002050
:10C37000A3E74905490D26D1002001E00028F4D1AA
:10C3800000219AE7284D6600002801D0012100E035
:10C39000002171185F00002A01D0012600E000266C
:10C3A000BE19224FA94210D8AE420ED8B14208D0D1
:10C3B00001256D05E94206D01946A8024140104604
:10C3C0007BE79C4201D0214677E70020394674E79D
:10C3D00010B50C465C4005D50124E4076340FFF727
:10C3E0000CFF10BDFFF778FE10BD30B40C465C406A
:10C3F00004D50124E407634030BC6DE630BCFCE6A4
:10C4000070B50124E40761400D465D4002D4FFF79A
:10C4100063FE70BD6340FFF7F0FE70BDFF070000D4
:10C420000000F0FF0000F07F0000E0FF0000F87F58
:10C43000F0B5F94D0C091E092C402E402F468BB04B
:10C44000A7437DD0B543FCD0002E7AD0002CFCD081
:10C450000D465D40ED0F2543AC1BFF25AD0464196F
:10C460000894C502440DC9022143500DDC02044367
:10C470000120C00701430443D2020191200C110C9A
:10C4800000958C46010423468B430A9161460904BA
:10C49000E24D8A430991010A7D444919803909789E
:10C4A00005464D4301266D18F605751B6943C90CF9
:10C4B000640B891C4C436418B5012C1B250C2E04FD
:10C4C000B4434C434D43210C691889090591009DE3
:10C4D000E90701D00121C90704912C460199670899
:10C4E000CD072F434C08059DE10B4D432D0C2946EC
:10C4F0006646754302950D4645432E46029D7D1BBB
:10C50000B44100950D465D4301942C0C2F040D465B
:10C510005543AE462D0C3D43029503947546049C4D
:10C520002D04641B049406D2029C039D641C002607
:10C5300075410395029401AC70CC009F7D1B01E016
:10C540003EE162E1B4410904009507910194059927
:10C55000A4086143090C0C464443650BE7040C46F0
:10C5600066467443A646640B3C43039502947446A6
:10C57000049DE4042C1B049406D2029C039D641CBD
:10C58000002675410395029401AC70CC009F7D1B81
:10C59000B44101940C465C430095650FE7000C46DE
:10C5A0005443A646640F3C43039502947446049D8D
:10C5B000E4002C1B049406D2029C039D641C0026FC
:10C5C00075410395029401AC70CC009F7D1BB44172
:10C5D000AE09AF06049DC900AD092F43049DA40612
:10C5E000AD060495079D344369180791059DE10B3D
:10C5F0004D432D0C29466646754302950D4645432D
:10C600002E46029D7D1BB44100950D465D4301946D
:10C610002C0C2F040D465543AE462D0C3D43029580
:10C6200003947546049C2D04641B049406D2029C5A
:10C63000039D641C002675410395029401AC70CCE7
:10C64000009F7D1BB44101948C050694079C890AC8
:10C65000611800950791019C0599A4086143090C94
:10C660000D464543680BEF040D46644665436C0B6D
:10C670003C43049FED047D1BAC4602D20025641CA4
:10C680006841009E019D371B85410846584301952E
:10C690000C46460FC5005443600F28436546E4002E
:10C6A0002C1B02D20025401C6E41019D3F1AB54152
:10C6B0002846BD09800628438446A009BF064E02CD
:10C6C0000699A40676180743079D002068410A9939
:10C6D000079019430020099B00906046FF191343FF
:10C6E0004041E20F64003A43A4460446D71A8C4105
:10C6F000A04203D90120009020463A46C70F941863
:10C7000040416246D20F2243644664000494009C78
:10C71000BE466400D71AA446044602978C41774669
:10C72000002F01D1A04204D96046401C8446029AE1
:10C730002046C40FA64694184041049A0546D20FDD
:10C74000224364466400D31A8D417146002901D109
:10C75000A84202D928461A46641C10430122002828
:10C7600000D0164361020020079B891904465C41F2
:10C770000223002C02DB491813466441089DCE0AAF
:10C780002D145D194B056705E10A2C050D19089953
:10C790003E43C9076940002B08D0934006D30022CE
:10C7A000761C5141002B01D1760876001C4A002DE1
:10C7B00043DB154241D0AA433FD030460BB0F0BD19
:10C7C00006180D464D41174C7642AC411AD39518C8
:10C7D0001C465C41134A6D42A24113D3012252050B
:10C7E0004C00D4420AD15C00D4420BD04B4002D55D
:10C7F00092021143E2E749004908DFE75940C90FB7
:10C80000C90718E000200849D8E7054801420DD1C2
:10C810000342F7D0F2E700000000FF070C550000CC
:10C820000000F07F0000E0FF0000F87F1148594051
:10C830000143C01241400020C0E70123089A9B0633
:10C840009A4205DC032252078918C90FC907B5E7C8
:10C85000052252078918074A1143D2125140ADE709
:10C8600070B515461C4602460B4628462146FFF782
:10C87000DFFD70BDFFFFFF7F70B505464800440D2A
:10C88000124B0020002C0AD0634008D09A4206DAEE
:10C890006642B24203DD12054019514170BD002CC1
:10C8A00008D0002B09D0C90FC907002AF6DB084AB7
:10C8B000114370BDC90FC90770BD28460A03104354
:10C8C00002D00020034970BD284670BDFF0700005C
:10C8D0000000F07F0000F87F00487047242E002001
:10C8E00000487047042E00200B4670B502468907A9
:10C8F0008008084319469D08141AA941250908070C
:10C90000054308092C194841250A01060D43010A6F
:10C910002C194141200C0D0428430D0C00194D41E8
:10C92000002140194D41C00869070843E908840FF8
:10C930008D002543840024184D4124196D41121B9C
:10C94000AB4107E00925ED432C1152196341002446
:10C95000401C61411C460A250026551BB441F1D2FA
:10C9600070BD0000F8B51F46044601230068DB02D5
:10C97000032601461840072A05DB002801D017A529
:10C9800006E017A504E0002801D016A500E016A5D2
:10C99000102081432160A069C01E002FA06101D03A
:10C9A000401EA0612046FEF771FC002F09D03846DA
:10C9B0006268A1689047206A401C2062C01C206207
:10C9C00006E0206AFAE762682878A1686D1C904743
:10C9D000761EF8D22046FEF76FFCF8BD4E414E00A1
:10C9E0006E616E00494E4600696E6600F7B51646E8
:10C9F0008AB02F4878446C4603467C33C06F5A682F
:10CA00009B680DC42A487844763003AC0DC80DC429
:10CA10003720C001081837211B30FEF709FE0546F4
:10CA20000C46803D1B3C02D56442012000E0002002
:10CA3000002709900FE0E0070BD00C201C49784339
:10CA4000794432464C394118684600F02EFA6B465C
:10CA500007C364107F1C002CEDD1154F7F442C3F81
:10CA600015E0E80711D02001C0190EC806910893FF
:10CA700007920068F04201D198190890324606A941
:10CA800003A800F012FA03AB07C36D10641C002D5D
:10CA9000E7D1324669460998002803A802D000F081
:10CAA0002EFA01E000F001FA0A9B07C30DB0F0BDB9
:10CAB00038500000034640000A4610B5400D0BD028
:10CAC0000121C9070F24A40200191C036408214393
:10CAD000540D2143D20207E000210120F2E7D40FD8
:10CAE000490021435200401E0029F8DADB0FDB0722
:10CAF000184310BDFFB50D46144685B0486851680F
:10CB000000F0F7FE00910190A868A16800F0F1FE26
:10CB100002910390A868616800F0EBFE029A121877
:10CB20008242029201D2012000E00020019A0B18FB
:10CB3000D2180028019202D08A4202D903E08A4228
:10CB400001D2012000E000200099081800906868D8
:10CB5000A16800F0CEFE029A12188242029201D21F
:10CB6000012000E00020019A0B18D2180028019241
:10CB700002D08A4202D903E08A4201D2012000E0B9
:10CB8000002000990818009028682168400049009A
:10CB9000400849084018EE49471814E00199400040
:10CBA000C90F08430090019802994000C90F08433B
:10CBB0000190029803994000C90F0843029003981E
:10CBC00040007F1E039000980028E7DA08980028AC
:10CBD00001D0E04E00E00026B74228DAF71BF80645
:10CBE000C00E15D0029B2021091A039A8B401A43CC
:10CBF0000392029A019BC2408B401A430292019A0F
:10CC0000009BC2408B4000991A430192C1400091A1
:10CC10007A110BD06B460320811A01D5002101E067
:10CC2000890059588700401ED951F5D537460398D9
:10CC30000299002800D001200143089802910028A1
:10CC400008460CD0002800D001200199019A49051E
:10CC500008430121D20AC902D202019200E0012157
:10CC60000E9B0122D207012B02D0002B03D013E030
:10CC7000002807D116E0904204D890420CD1019BC5
:10CC80000B4209D0019B5918019105D10099491C0B
:10CC9000009101D17F1C0092002803D0102108468A
:10CCA0000020C04628682168019B009A4840C10FB7
:10CCB0000598C90739430EC009B0F0BDFFB587B06C
:10CCC000099A089808995368926840688968964656
:10CCD0000022039317469446089A12685300099A53
:10CCE0005B081268520052089A1A9B4BD4180A9A91
:10CCF000002A01D0352200E04022069200220123C2
:10CD000015460492DB07059324E0002D05D17546F6
:10CD10000346039E4D1BB34109D375466646039BEC
:10CD2000491B049D9841059B7519AC465F416346BC
:10CD30003B4308D0059B049EDD0776082E435B0825
:10CD40000496059301E0521E641EC50FED074918B5
:10CD50004041521C069B9A42D7DB002D04D17546F8
:10CD6000039A6B1A824101D203200CE0039A0B460E
:10CD70006B404240134303D0014303D0012002E043
:10CD8000022000E0002061460191002100970291FD
:10CD90000A99002905D06146400201436D4B01917B
:10CDA00002E08007002302909C423ADA1A1BD00668
:10CDB000C00E15D0029D2021019C091AC5408C404F
:10CDC0002543029C8C4000D001242543019C029500
:10CDD0003D46C4408D4039462C43C14001940091EA
:10CDE00054111DD06D460221002202290CD10320CE
:10CDF000001B07E0002804DB8600AE59002E00D09F
:10CE00000122401C0328F5DB081B02D588002A50AC
:10CE100004E08000285810438A00A850491EE3D53A
:10CE20001C460A98002802980CD0002800D0012047
:10CE30000199019A490508430121D20AC902D20287
:10CE4000019200E00121109B0122D207012B02D0A8
:10CE5000002B03D013E0002807D116E0904204D83D
:10CE600090420CD1019B0B4209D0019B59180191B2
:10CE700005D10099491C009101D1641C0092002841
:10CE800003D0102108460020C04608980999019A4D
:10CE90000068096848400099C30F0798DB072343DF
:10CEA0000360826041600BB0F0BD1FB500230092AB
:10CEB0000A46014601A8FFF71DFE01AB07CB04B0EF
:10CEC00010BD1FB5012300920A46014601A8FFF7D5
:10CED00011FE01AB0F2407CBA402C30F4000DB07F8
:10CEE0004008001B002900DB00204900000549081C
:10CEF000CC0A204349051843D20A1143DFE71FB586
:10CF0000002300920A46014601A8FFF7D7FE01ABB5
:10CF100007CBD4E71FB5012300920A46014601A8BA
:10CF2000FFF7CCFE01AB0F2407CBA402C30F4000D8
:10CF3000DB074008001B002900DB0020490000053A
:10CF40004908CC0A204349051843D20A1143B6E7E1
:10CF500002C0FFFF013C0000FF3F0000F8B5224C7B
:10CF60004E00069DA6420AD8A64201D1002806D14D
:10CF70005E00A64203D8A6420AD1002A08D00D249A
:10CF8000240425422CD02946002000F0DAF8F8BD10
:10CF90000C461C430CD4994202D0EFF30080F8BD3C
:10CFA000904202D0EFF30080F8BDEFF30080F8BDAF
:10CFB00009242407E5008B4206D0EFF30080A0434C
:10CFC000591A06D2284304E0101A05D3EFF3008063
:10CFD000A04380F30088F8BDEFF30080A043F1E7A1
:10CFE000009500F0C5F8F8BD0000E0FFF0B53D4B3E
:10CFF00002460C461C400020002C63D03A4D8B4367
:10D0000066D000296BDB0B0D1D05A94301252D05FD
:10D0100029430124FD33E34001D392184941FF33F2
:10D0200081339C468B02940D0121234389074C4296
:10D03000920200271B198C105D1A04D42D1B02D4F8
:10D040002B466500491992185B416408F4D15C1ABB
:10D0500008D40125ED07EE175519744102D42A466C
:10D060002346491C94185B41012292071D46E61B8A
:10D070008D4106D4B61A854103D42B46550034465B
:10D080007F1924195B415208802AEFD1234300D035
:10D09000022338460A22D04001D3012213438A05D5
:10D0A00010436246890A12058918002B09D0012213
:10D0B000D34002D30022401C5141002B01D1400833
:10D0C0004000F0BD0B03134307D0C90FC907F0BDE3
:10D0D0000803104303D1002901DB1046F0BD0020F6
:10D0E0002946F0BD0000F07F0000F87F004870473F
:10D0F000042E00207546FFF7F9FFAE46050069468D
:10D100005346C008C000854618B020B5FEF790F819
:10D1100060BC00274908B6460026C0C5C0C5C0C5CA
:10D12000C0C5C0C5C0C5C0C5C0C5403D49008D46CD
:10D13000704710B50446C046C0462046FEF712F8B8
:10D1400010BDC80212D54803400F002804D0C80300
:10D15000C043012188407047EFF3008000010009BF
:10D1600003210907084380F30088704700207047B7
:10D1700010B500200249029A00F004F810BD00002A
:10D180000000F87F10B50C461107090F092904D0DB
:10D190000A290AD008290CD104E011460820FFF71B
:10D1A000D0FF06E0510606D501E0510601D5012069
:10D1B000C007214610BDD10607D501010909CC08D9
:10D1C0004907000E0006044309E0410F2002490709
:10D1D000000A0143200E00061D22D14101430846EA
:10D1E000E7E770B58C180578401C6B075B0F01D121
:10D1F0000378401C2A1106D10278401C03E006780F
:10D20000401C0E70491C5B1EF9D12B0705D400236E
:10D21000521E0DD40B70491CFAE70378401CCB1A40
:10D22000921C03E01D780D70491C5B1C521EF9D541
:10D23000A142D8D3002070BDF0B50025FF248BB0EB
:10D24000013401262F460195204602F027FC0028D4
:10D2500008D047484068304204D046480021201892
:10D2600035430160241D76007F1CA4B2042FEBD34C
:10D27000FF207D3002F012FC002807D03E4800213C
:10D280000160400705433D48006901903C4C280778
:10D2900012D0012700262F420AD03A48B2001118B6
:10D2A00008690969C004C00E8903A258890F904714
:10D2B0007F00761C042EEED3002D57DA0020059057
:10D2C000401E4DE0A119403108788506AD0E42B2EE
:10D2D000521C39D00121A940089A0091114233D043
:10D2E00080090390284601F03BFC80002058049000
:10D2F000002802D10398032826D103980099032817
:10D3000002D10598084305901F4AA80080180068BC
:10D31000019A8003800F114202D0022802D013E04C
:10D32000032811D10399032907D102281CD0022117
:10D33000284602F09BFB7F1CFFB20498002803D014
:10D34000049A284603999047761C042EBAD3002FDE
:10D350000CD00A4800690199884207D001900598CD
:10D3600000273E460890ADE70321E1E70BB0F0BD92
:10D3700000630040006000407C61004000050050F8
:10D380003828002000650040000700508307FF2276
:10D39000DB0E9A408907090E994000280BDA000736
:10D3A000000F0838830808489B001818C369934386
:10D3B0000B43C3617047830804489B001B1818681F
:10D3C000904308431860704700ED00E000E400E07F
:10D3D00010B506490020086048608860C8600349AD
:10D3E00040390860486003F003FD10BD4011014062
:10D3F000F7B518214843214916464418E16A8807C1
:10D40000800F02280BD0A06A626A801A401E01D5E4
:10D41000226A1018864202DD89072DD00646002EAA
:10D420002AD00027A06A616A451A6D1E01D5206ABC
:10D430004519616A206A411AA94201DC616A451AEC
:10D44000B54200DB3546616AE0692A464018019919
:10D45000FEF73EF801987F1940190190606A761B2B
:10D4600040196062606A216A884201D100206062CE
:10D47000002ED7D13846FEBD0020FEBDC8200020BA
:10D480000FB408B504A900916A46039900F004F8A6
:10D4900001B008BC04B01847F7B598B007A80290CF
:10D4A000402000250495039018980C460595069099
:10D4B0002178641C002974D0252907D002A800F027
:10D4C000F9F905980028F3DA1BB0F0BD002101231B
:10D4D0000227042208262078232817D02B2813D0CF
:10D4E0002D280DD030280DD0002220780346303B67
:10D4F0000A2B0ED20A235A431218303A641CF4E75E
:10D50000194304E0394302E0114300E03143641C55
:10D51000E1E70023C7B22E2F0AD1641C207807460A
:10D52000303F0A2F04D20A277B431B18303BF4E715
:10D530006C280DD068280BD0702852D00BDC252821
:10D540005AD058282ED063280CD0642858D110E027
:10D550002078641CECE7732832D0752817D078281F
:10D560004ED11FE01A981A9A0068011D11600178C7
:10D5700043E01A981A9F0068061D3E6000680191FA
:10D58000009201460A2202A800F0C0F838E01A987A
:10D590001A9F0068061D3E600068009201910A22F1
:10D5A00009E02FE01A981A9F0068061D3E60006887
:10D5B000009201911022014602A800F009F91FE033
:10D5C0001A981A9A0068011D116006683178761C55
:10D5D000002915D002A800F06DF905980028F5DAA9
:10D5E0000EE01A981A9A00680823011D116001685C
:10D5F000102200960195DFE7252102A800F05AF9D4
:10D60000641C5EE70598002800DC5DE704980028AC
:10D6100004D0024607A91898FFF7EAFE0499059876
:10D620004018059050E7000010B50249024801F08B
:10D63000C1FC10BD742900200030004010B503F07B
:10D640006DFB10BD10B506484068002805D0804726
:10D65000002801D000F048FB10BD01F06FFC10BDA8
:10D660004021002010B501F009FD002805D01F4918
:10D670001D484860C8131E4988611E48018CC9B204
:10D6800001290BD1828C120708D1028D1206120FCC
:10D69000042A03D1828D1206120F0AD0012921D14A
:10D6A000818C09071ED1018D0906090F0A2904D0B2
:10D6B00007E0114A01219160F5E7828D1206120FF1
:10D6C00005D00D290ED1808D0006000F0AD10B4820
:10D6D0000168012904D00A49016001680129FCD1CF
:10D6E000C021416110BD0000DFFF07C00005004000
:10D6F000006C0040C00F00F00006004000EC064047
:10D700007593000010B503F0BBFE10BDFFB583B0EC
:10D710000E4670420D9F0C9C0090002900DB0846CD
:10D72000012502E0FDF77AFF6D1C05998842F9D2C8
:10D730000698A84200D90546002C04D0002E01DB33
:10D74000780700D5641EB80702D50698002811D0C6
:10D75000F8070FD1002C0DD02046641EA84209D92D
:10D760002021039800F0A6F80398C0680028F1DA99
:10D7700007B0F0BD002E02DA2D21009E02E07807EE
:10D7800007D52B21039800F095F80398C06800286E
:10D79000EEDBB807800F022811D1069800280ED1C1
:10D7A000002C0CD02046641EA84208D930210398D2
:10D7B00000F080F80398C0680028F1DAD8E70197F4
:10D7C00000943146069B059A039800F001F8CFE7D4
:10D7D000FFB581B001271E463D460A9C029802E033
:10D7E000FDF71CFF6D1C03998842F9D2AE4200D9A7
:10D7F00035460B98C0071CD1002C1AD00B98800717
:10D8000001D5002E02D0202000900BE03020FBE755
:10D810000099019800F04EF80198C068002845DB97
:10D82000002C06D02046641EA842F1D801E00398DF
:10D83000474339460298FDF7F1FE014603988142BD
:10D8400001D3012000E000203146761E012901DDD0
:10D85000012100E000210843E9D1154E3946029824
:10D86000FDF7DCFE0146029A7943511A0291315CC0
:10D87000019800F01FF80198C068002805DB3846C1
:10D880000399FDF7CBFE0700E8D10B98C0070DD038
:10D89000002C0BD02046641EA84207D920210198F5
:10D8A00000F008F80198C0680028F1DA05B0F0BD72
:10D8B000F818020010B5044680686368421C934261
:10D8C00005DB23681954A260E068401CE060A26890
:10D8D0006068824209D121682069FFF789FDA1684B
:10D8E000884203D00020C043E06010BD0020A0604B
:10D8F00010BDF8B5040C8BB2264682B25E431046CA
:10D9000058430D0C370C3604002180191646794116
:10D910006E43370C36048019264679416E438919C7
:10D92000F8BD30B47446641E2578641CAB4200D246
:10D930001D46635D5B00E31830BC18474900CA020E
:10D940000243100000D004204A0D01D001221043F0
:10D95000044A490D914201D102210843012800D116
:10D9600005207047FF070000F8B504464F1EC800A9
:10D970000838211815461E46086849683A460623A5
:10D980009A4310D02A463346FDF762FF3A46D2004A
:10D99000083AA3181A687F1E5B68FEF719FD062275
:10D9A0003B469343EED1022F23D0042F11D0062FF4
:10D9B0002FD12A463346FDF74BFFE36AA26AFEF7F2
:10D9C00007FD2A463346FDF743FF636A226AFEF7E6
:10D9D000FFFC2A463346FDF73BFFE369A269FEF7E9
:10D9E000F7FC2A463346FDF733FF63692269FEF7E9
:10D9F000EFFC2A463346FDF72BFFE368A268FEF7EB
:10DA0000E7FC2A463346FDF723FF63682268FEF7EA
:10DA1000DFFCF8BD002210B5134610460149FEF7A1
:10DA200007FD10BD0000F03F10B5FEF7D1FC10BDA2
:10DA3000002210B5134610461146FEF7F9FC10BD42
:10DA400010B50721024A00200907FEF715FF10BD97
:10DA500001030000034A10B500201107FEF70CFF78
:10DA600010BD000001FDFFFF30380A2801D201205F
:10DA7000704700207047FEE7F7B584B00025168890
:10DA800007461580406B1446002813D0037805988C
:10DA9000032E51D30221017021881122491C89B221
:10DAA000218042542188491C89B221804354208816
:10DAB000401C2080386B00281DD005462088059921
:10DAC00002461232B24237D811220A54208810225C
:10DAD000401C80B220800A542088401C20800F20E7
:10DAE0002A5C2388401ECA54228840B2521C2280DD
:10DAF0000028F5DA0025384620300290807B002887
:10DB000006D033462246059901F0DCFA050014D10F
:10DB10000298407B002806D032462146059800F046
:10DB2000D9FC050009D1B878002823D0059886468D
:10DB30002088001DB04202D90C2007B0F0BD684615
:10DB400079DF0028F9D121880320724650542088BB
:10DB50001921401C80B22080115420887146401C3D
:10DB600080B2208041186846008803F01DFD21889E
:10DB700040182080F878002817D0218803230A460F
:10DB8000FB56C91C0598B142D6D802218154218880
:10DB90000122491C89B2218042542188491C89B242
:10DBA000218043542088401C20807868002817D0AA
:10DBB00021880023C3560A46C91C0598B142BBD828
:10DBC0000221815421880A22491C89B221804254B1
:10DBD0002188491C89B2218043542088401C208020
:10DBE000388900280AD0009438460196062202217E
:10DBF0000830059B03F04DFD05009ED1388A0028B2
:10DC00000AD0009438460196072203211030059B64
:10DC100003F03FFD050090D1388B00280AD0009416
:10DC200038460196152214211830059B03F031FD6A
:10DC3000050082D1386A002806D03346224605996D
:10DC400000F0EAFF0500D8D1786A002806D03346F4
:10DC50002246059901F05AFC0500CED10298007BBE
:10DC6000002807D0334622463846059902F06AFF5D
:10DC70000500C2D13878002807D0334622463846FE
:10DC8000059901F077FC0500B7D1284655E710B596
:10DC900001220221002000F017FE002801D00728F1
:10DCA00012D107220221012000F00EFE002801D02F
:10DCB000072809D100210A22084600F005FE0028A5
:10DCC00001D0072800D1002010BD0000BFF34F8F06
:10DCD00004490348C860BFF34F8F00BFFDE7000051
:10DCE0000400FA0500ED00E00EB50021029000915D
:10DCF0006A4601910148FFF7E9FF0EBD01400000AF
:10DD000010B58268C368934203D001F021F8002067
:10DD100010BD052010BD002906D0002A02D0531ED8
:10DD2000134203D0092070470E20704701608380A2
:10DD300000218160C1600846704710B58268C368E1
:10DD40009A1A83889A4203D801F00CF8002010BD7B
:10DD5000042010BD094B9B68002B07D0002A07D078
:10DD6000002805D00068037C002B03D008207047F2
:10DD7000072070474174426100207047A4200020B2
:10DD8000FFB59007002581B014460E46002832D119
:10DD90001B4F002C31D002F075FD049878610320F0
:10DDA000387033461821224600204B43BC6018349B
:10DDB000C10089180D704D708E704C601C19401C8C
:10DDC0000328F5DBFD607D7001240E48BD7024053D
:10DDD000046003211420FFF7D9FA0B4804600B4CB0
:10DDE0000198A06003211120FFF7D0FA6068386124
:10DDF000002005B0F0BD0720FBE7BD60FBE7000099
:10DE0000A420002080E200E000E100E000150140D5
:10DE1000FEB50D461B4917468968044600292AD0DD
:10DE2000002C28D0052D01D20720FEBD60690028F6
:10DE300021D0607C012820D0002603F0EDFBC0003B
:10DE40001049019089684018694603F00FFC0028CA
:10DE500015D0012101700C49446049680830E2C0C6
:10DE6000084901988968411868460078487002F0AE
:10DE700097FF0020FEBD0820FEBD2E46DDE70420F2
:10DE8000FEBD0000A420002000150140F8B5134D90
:10DE90000446A96800291CD0002C1AD0606900280B
:10DEA00017D00026267403F0B7FBC700A8686946A0
:10DEB000381803F0DBFB00280DD00221017044600C
:10DEC000A868391868460078487002F069FF304643
:10DED000F8BD0820F8BD0420F8BD0000A4200020F3
:10DEE00010B5044609488168C2688088511A814289
:10DEF00007D10121064801F0BFFC002801D0052010
:10DF000010BD21460148FFF7FBFE10BD1828002078
:10DF10007920002070B50446224888B01E460D00C6
:10DF200042601CD0A888296882B21F48FFF7F3FE20
:10DF3000002815D1A889A96882B21B481030FFF7C4
:10DF4000EAFE00280CD1202218496846FDF740F966
:10DF5000A06806902079002804D0012103E0072062
:10DF600008B070BD00216846017506776079002809
:10DF700000D00E2069464875E0780290A0780390A2
:10DF800020780190607800900949684601F010FC03
:10DF90000028E5D101F096FC02480121401C01F067
:10DFA0006BFCDDE778200020182800209C18020078
:10DFB000D113020010B501460A48FFF7BEFE040067
:10DFC0000ED101F025FD00280AD107490548FFF7C9
:10DFD00097FE002804D10121034801F0CDFC04463E
:10DFE000204610BD2828002078200020F0B50C46DF
:10DFF00093B01F216A4611800726002791800028D0
:10E0000009D0C17849070DD502A9FFF735FD0028D1
:10E0100009D102AD01E000251780002C0ED0E07878
:10E02000002802D0304613B0F0BD01AA0AA920464C
:10E03000FFF722FD0028F6D10AAA02E06846002276
:10E04000878068468088C3B268460088C1B2284687
:10E0500072DFE8E770B50D4604991646040042D019
:10E06000002E40D0424800224271C3600161242248
:10E0700031464048FDF7ACF800F0BCF83D4934317A
:10E080000846103801602031816038215C38FDF786
:10E090007EFA3848217838380170A1788170E178AB
:10E0A000C170617841706269216942610161E26811
:10E0B000A168C26081600146E369A269CB618A619F
:10E0C000616A002919D00146AC310246B83241627A
:10E0D0008A60636A1B880B80616A436A89889980B9
:10E0E0000021436A06E00E2070BD666AB668765C61
:10E0F0005654491C9E888E42F7D8A16A00291CD02C
:10E100001C4AAC3211460C398A608162A36A9B8832
:10E110008B80A16A836A098819800021836A04E0E0
:10E12000A66AB668765C5654491C9E888E42F7D81B
:10E130002C210A5D0F4918390A73216A002909D078
:10E140000B4914310162226A52884A80216A026AAC
:10E15000098811806168002904D00549891D416042
:10E1600061684160034829463838FFF73FFF70BDBA
:10E17000442000201027002010B502881C4C102AD3
:10E1800017D00021112A1AD01B2A11D1007A002899
:10E190000ED1607901281ED0022822D0032822D077
:10E1A000042805D12171E2680846002A00D0904772
:10E1B00010BD817D0129FBD18088208110BD617057
:10E1C000808821898842F9D1012005E02169002950
:10E1D000F4D0884710BD022000F014F80028F5D1D3
:10E1E00010BD0320F8E7032020710420F4E70000AD
:10E1F0004420002010B507210148FDF7C8F910BDE3
:10E200005C200020F0B5784C87B06071002606A82D
:10E21000069602F0C9FA0127082802D0002808D182
:10E2200004E006A800F0A8FD002804D10698002804
:10E2300001D02770D4E0FFF7DDFF6C4D687800282F
:10E2400002D06079012807D0A87800280CD0607926
:10E25000012801D0022824D1E168002903D0E77009
:10E260000820884700E0E6706079012808D16878C6
:10E27000002809D05C48193001F08CFD002803D03B
:10E280006079022802D00CE002206071A878002892
:10E2900005D05548193001F07DFD002801D103203B
:10E2A0006071287B002804D16079032801D1042003
:10E2B0006071287E002804D16079042801D166713C
:10E2C0002671E16800290AD06079032801D004286A
:10E2D00005D12878002802D06078002817D0A670D1
:10E2E00018216846FDF753F96846067001960672D4
:10E2F0000396607901280ED0022815D03B4E2436B3
:10E3000037465C3F03281BD004285DD13AE0A77054
:10E3100007208847E4E734481830019068460770C2
:10E3200046820682277152E02F48183001906846D5
:10E33000077029894182A98801820220207146E064
:10E34000A88A69464882288A08822848243003F02F
:10E350000FFA002805D02878002802D0607800281D
:10E3600001D003202FE002206946087204200396A2
:10E37000F8701E4800213838FFF738FE002830D1E9
:10E38000052020E0A88B69460882288C488217481F
:10E39000243003F0EDF9002805D02878002802D0B9
:10E3A0006078002801D004200DE002206946087240
:10E3B00004200396F8700D4800213838FFF716FE48
:10E3C00000280ED1062020716079002803D068460D
:10E3D00073DF002805D1E168002901D02079884742
:10E3E000002007B0F0BD00004420002010270020CE
:10E3F00070B5054601461C220E48FCF7E9FE0E4C9E
:10E40000002626702968002906D00822201DFDF765
:10E410005FF8201D7ADF02E00748001D7BDF00283F
:10E4200007D1401E60806670044A00210448FFF74F
:10E4300091FC70BDFC27002064200020B51502006F
:10E4400088180200F8B5214C028800271E4DE68985
:10E45000102A15D01E49112A21D0122A2DD0502A57
:10E460001CD1C288801DB24218D14289022A15D11E
:10E47000427B037B10021843C007C00F0CD112E08F
:10E480008188698001461048082218310C30FDF758
:10E490001FF86F70002E01D100F006FCF8BD0020BF
:10E4A000C04368806F700868FFF7F0FC0028F5D063
:10E4B000A1690029F2D08847F8BD082281180248D6
:10E4C0000C30FDF705F8E7E764200020FC2700206A
:10E4D000881802007CB5054608880C460930904231
:10E4E00001D90C207CBD684671DF0028FAD1218853
:10E4F0000820685420881B21401C80B220802954A9
:10E50000208800A9401C80B22080401906220131D9
:10E51000FCF7DEFF20886946801D80B220800978E4
:10E52000002900D0012129542088401C208000208F
:10E530007CBD000010B50446FFF784FF2146064865
:10E5400000F040F8204601F0E9FA2046FFF714FEFB
:10E55000204600F023F910BD9C25002030B5184B53
:10E560000D4604000FCB85B003936B4607C324D040
:10E57000002D22D00020C043A0822868A061002086
:10E58000A0752146684663DF002814D121786846CB
:10E59000817401210182A21C04A90120A0DF0028AE
:10E5A00009D12946204602F0ABF9002803D12946BB
:10E5B000204602F087FE05B030BD0E20FBE70000CC
:10E5C0008C18020000281ED000291CD00A88102AAE
:10E5D00014D0112A14D0502A15D1CA88038A891D53
:10E5E0009A4202D14B89022B0ED083889A420AD1DB
:10E5F0008369002B07D04A890C311847898801E0CC
:10E600000021C943818270474A7B0B7B1102194369
:10E61000C907C90F00D001218175704707B584B0C3
:10E6200000280DD0828A114B9A420BD0827D002A9D
:10E6300008D06A46128B142A06D9072007B000BDFD
:10E640000E20FBE70820F9E70022009201920292D7
:10E65000039282896B461A80039106A902910121D7
:10E660009970808A6946A6DFE8E70000FFFF000096
:10E6700010B5254886B000680590224623A10020E9
:10E68000FEF7FEFE00234822264905A802F008FBFB
:10E69000002801D0FFF728FB224623A10020FEF727
:10E6A000EFFE6A460121002002F0E2FA044602462B
:10E6B00025A10020FEF7E4FE200001D0FFF714FBA7
:10E6C000264802F089F9002801D0FFF70DFB6846C3
:10E6D00002F0C4FA0446024621A10020FEF7D0FE53
:10E6E000200001D0FFF700FB244802F0ADFA0446F9
:10E6F000024623A10020FEF7C3FE200001D0FFF751
:10E70000F3FA06B010BD0000241802000A0D436F92
:10E710006E66696720636C6F636B3A2025640D0A2F
:10E7200000000000782100200A0D496E69742073F2
:10E730006F66746465766963652068616E646C6594
:10E74000723A2025640D0A000A0D47657420636F34
:10E750006E6669673A2025640D0A0000E81F0020F4
:10E760000A0D536F667444657669636520656E6152
:10E77000626C653A2025640D0A00000035E5010051
:10E780000A0D536574206576656E742068616E6449
:10E790006C65723A2025640D0A00000010B51C4C0F
:10E7A0000188606810290DD011290AD1401E6060CF
:10E7B00007D1FFF76CFA002803D02168002900D0A8
:10E7C000884710BD00281ED100210122084600F014
:10E7D0007BF8002801D0072811D10722022101204F
:10E7E00000F072F8002801D0072808D10422022185
:10E7F000002000F069F8002805D0072803D0216820
:10E80000002900D088476068401C606010BD00008F
:10E810003C20002010B5032000F084F9002801D02E
:10E82000062800D1002010BDF8B507460024234873
:10E8300002E0641C042C1AD2A2008258BA42F8D119
:10E84000042C14D21D481E4E0C38002929D0012951
:10E850000ED002290BD16000201880194578002DB8
:10E8600005D018480169002901D028468847F8BD1D
:10E8700061006118755C8E19717800290CD01149FE
:10E880000A224968806851430E4A521CFFF7C0FAB9
:10E89000002801D10B4847700A48B178143001555F
:10E8A000DDE78068FFF7F2FA06486100611814306E
:10E8B0008919005D8D78A842D1D0F8BD58180200A2
:10E8C000AC2600202420002070B50023042811D29B
:10E8D000440004190D4D012A02D101290DD0002256
:10E8E00046008019094E801900290CD0012906D054
:10E8F000022906D00723184670BD0D30C2B22A5532
:10E90000F9E74270F7E78270F5E70000AC260020D7
:10E9100010B5054A0146127A0020D20702D00846F7
:10E9200000F004F810BD000024200020FEB57A4D50
:10E930000722EB6892059A4302936B6800939C0050
:10E9400006461B1900200121019349050746734C17
:10E950003300FEF7E6FF180D1515374755677C881D
:10E960007F8891DE9E9E9E9E9EC8CED1D8DEDE140C
:10E970000F21029A49059143A160E7602F70FEBD07
:10E98000A260E76060680F2252055040800209D5FE
:10E99000A160E760022E02D1E120C0000AE07D20E4
:10E9A000400107E0E160A760022E01D1C82001E02C
:10E9B000FF2091302E706421FCF730FE0099414316
:10E9C00000223FE0A260E76060680F2252055040DD
:10E9D000800204D5A160E76019204001EAE7E16008
:10E9E000A760E3E7A260E76060680F22520550402D
:10E9F000800202D5A160E760D1E7E160A760D7E7B8
:10EA0000A260E76060680F2252055040800202D584
:10EA1000A160E76001E0E160A7602E70009841000E
:10EA200000220FE0A260E76060680F2252055040AC
:10EA3000800202D5A160E76001E0E160A7602E706E
:10EA40000099002236480068FFF7E2F9FEBDA26097
:10EA5000E7601BE061680120800502468A43A260EE
:10EA60000140E16010E06068012189050A468243A7
:10EA7000A2600840E060E3E76068012189050A467A
:10EA80008243A2600840E0600199C9E7E160A760A5
:10EA90002DE023484068FFF7F9F911218A1B01D0C6
:10EAA000002807D00F22E96852051140A160E760F5
:10EAB000EF60FEBD0121C905E960012A0CD91046AD
:10EAC000C82148436421FCF7A9FD6968002241433D
:10EAD00013484068FFF79CF90F22E968520511407E
:10EAE000E160A760FEBD0F214905A160E7602E70BF
:10EAF000FEBD07229205AAE70D214905A160E76046
:10EB000001218905C2E70321C905A160E7608910D9
:10EB1000BCE70F214905B9E724200020000500507B
:10EB20004C180200F0B500210B4C0C4D03273F049C
:10EB30008A00A25892005619326801238B40034084
:10EB400000D00323BA431B0413433360491C042938
:10EB5000EED30020F0BD000058180200000700505E
:10EB60000249091820200856704700003828002064
:10EB7000F8B52348C16800293ED00E6821494C6889
:10EB80000769C078E11B0D022D0AED1C002814D185
:10EB900001201D4A000450601B4A403A50601B4946
:10EBA000400008601A4908601A49012008602F20B7
:10EBB000FCF7FEFA12490120C870B54200D2354672
:10EBC000E81900020F4B000A403318600D4A5168E3
:10EBD000001B091B0902090A0002000AC91C814224
:10EBE00009D9506818602F20FCF7E2FA0120074984
:10EBF000400480390860F8BD01F044FEF8BD000013
:10EC0000A4200020001501404013014080E200E0F4
:10EC100000E100E000100140F8B5064610881446F7
:10EC20008446801D0D46984201D90C20F8BD3288DB
:10EC30000720062AFAD31927FF01184BBA4201D937
:10EC40009A42F3D171880629F0D3B94201D9994289
:10EC5000ECD19A4203D0994201D08A42E6D80521EC
:10EC60006046295420881221401C80B220802954FB
:10EC70002088401C80B220804119308802F094FC2A
:10EC80002188401880B220804119708802F08CFCE5
:10EC90002188401820800020F8BD0000FFFF000000
:10ECA00010B5FFF721F810BDF8B5164800F0D8F9F7
:10ECB000144D00260C3D144C002807D06169002932
:10ECC0001CD001206A461070684616E0287800289B
:10ECD00005D06169002911D0684606700DE068789A
:10ECE00000280DD0A168094800220068FFF790F8BD
:10ECF000002803D0A169002900D088472E70F8BDF4
:10ED00006168F0E770200020FC27002088180200CE
:10ED100010B50E4900234A788C78A24212D0521CBA
:10ED2000D2B24A70022A00D14B704A78074B920047
:10ED300018339A580260086910180002000A086126
:10ED4000012010BD0360002010BD0000A4200020A1
:10ED5000826883881A4003689A5C0A708168491C3B
:10ED600081607047C26883881A4003689954C168FB
:10ED7000491CC16070470000002804D00349496D58
:10ED80000160002070470320704700009C2900208C
:10ED90001CB5002431A120460194FEF771FB02232B
:10EDA00001AA4B213448009400F0DCFC642000F000
:10EDB00031FC324C20780028FDD031A10020FEF734
:10EDC0005FFB34A10020FEF75BFB01F039FDE0782A
:10EDD0000028FDD17D20C00000F01CFC31A10020E6
:10EDE000FEF74EFB36A10020FEF74AFB02E00A20A8
:10EDF00000F010FC01F008FD0028F8D036A100203A
:10EE0000FEF73EFB00220121052001F0E3FE002871
:10EE100003D038A10020FEF733FB642000F0FAFB9A
:10EE200000220121042001F0D5FE002803D035A1E5
:10EE30000020FEF725FB642000F0ECFB1F223221AE
:10EE40001E2001F0C7FE002803D035A10020FEF7E8
:10EE500017FB642000F0DEFB1CBD00000A43686560
:10EE6000636B20494D5520617661696C6162696C04
:10EE7000697479210D0A000028180200E81F00209B
:10EE80000A494D5520417661696C61626C65210DBE
:10EE90000A0000000A526573657420494D55210D22
:10EEA0000A0000000A494D552052657365742073AD
:10EEB00075636365737366756C210D0A000000004D
:10EEC0000A436865636B696E672070726F6475636F
:10EED00074204944210D0A000A494D552050726F93
:10EEE000647563742049442072656365697665645E
:10EEF000210D0A000A5175617473207365740D0A3F
:10EF0000000000000A5265616C20616363656C65F6
:10EF1000726174696F6E207365740D0A00000000E1
:10EF20000A41637469766974792063616C737369EB
:10EF300066696572207365740D0A0000F8B51C4C93
:10EF40002078002833D02069002807D00026E06808
:10EF5000002805D00025002E04D011E00126F6E798
:10EF60000125F8E7684652DF052804D0002804D0C0
:10EF7000FEF7BAFE04E0012602E021690098884706
:10EF8000002D10D1608869460880A06861DF0528DF
:10EF900004D0002804D0FEF7A7FE04E0012502E01B
:10EFA000E168A0688847002EDCD0002DD3D0F8BDE2
:10EFB000402100207FB50C460D4620350646697875
:10EFC00028780191009022462632D11E3046E3690E
:10EFD00002F053F8002819D1E87800281DD1207BD1
:10EFE000022801D0032818D12269E169914214D185
:10EFF0006269E261E37B2B70217E8906C90F69702B
:10F00000032804D03146204601F0DAFF7FBD00918D
:10F010003146204602F0B4F87FBD20460C3007C8C8
:10F0200001AB07C3E878002100280ED00920C001F9
:10F030003218506C5064820701D5012002E040076D
:10F0400005D502206A46107001E0684601702971FA
:10F05000207E4007E0D422686846616890477FBD03
:10F06000418805480288914204D34088814201D8F2
:10F070000120704700207047682000201048018C54
:10F08000C9B2012917D1818C090714D1018D090654
:10F090000A0F03D1828D1206120F0ED0090F01291B
:10F0A00003D1828D1206120F07D0032903D1808D60
:10F0B0000006000F01D000207047012070470000BB
:10F0C000C00F00F030B51588EC1C9C4201D90C2013
:10F0D00030BD02244C5513881C255B1C9BB2138049
:10F0E000CD5413885B1C9BB21380012807D00228E3
:10F0F00007D0032807D0042807D0072030BD002000
:10F1000004E0012002E0CC5401E00320C854108840
:10F11000401C1080002030BDF8B52C49C8680A6931
:10F120000C780F7989688646944600913EE00099F4
:10F13000E20055182A7836E0182353436968521CB8
:10F14000C918AB78D2B2934200D100220B78022BBF
:10F1500002D0032B27D123E04E680346014603E08B
:10F16000B14204D00B46C96900291CD0F8E7002938
:10F1700019D08B4208D1C069002805D1144F01264F
:10F18000BE600026B44601270E68C969D96100290E
:10F1900009D00B689B190B6005E00174C06900E0A1
:10F1A00000210028F9D169789142C5D12146641E19
:10F1B000E4B20029BBD1054962460A61C8600F71FB
:10F1C000704501D00120F8BD0020F8BDA42000202A
:10F1D00000100140F8B5044631480026C16800918E
:10F1E00007784EE02E48F90080680D1843E0002CA7
:10F1F00002D02046E4691FE02878182141436A685C
:10F20000401CC0B251182870AA78904200D12E70CC
:10F210000A784868012A30D1027C002A2DD18A68F8
:10F220004260CA6882600A69C260496981611C499A
:10F230000979002900D04660194943680A699C464B
:10F24000991A0902174B090A994202D28268891851
:10F2500007E06146511A09028268090A8A4202D906
:10F26000511A016000E00660466001218660017469
:10F27000C66101F09DFD002CB9D1287869788842DB
:10F28000BAD138467F1EFFB20028ABD10448C1680E
:10F290000098814201D00120F8BD0020F8BD000097
:10F2A000A4200020FFFF7F000023A6B06F4A0521A5
:10F2B0001846FEF765FD002801D0FEF715FD6C4AE3
:10F2C00004AB07CA07C3FF2101316A480090401808
:10F2D0000191039102900323674A694604A8FEF74F
:10F2E00019FE002801D0FEF7FFFC64A10020FEF704
:10F2F000C7F87D24E400204600F08CF9FFF7B8F948
:10F3000062A10020FEF7BCF81120694608720722AE
:10F3100062A102A87CDF002801D0FEF7E5FC0025F1
:10F32000009506206946019508804880FF208D8061
:10F330009130C88068467ADF002801D0FEF7D4FCFF
:10F340005848009069465848FFF708F9002801D04E
:10F35000FEF7CAFC382101A8FCF719F9022168461A
:10F36000017185710521C17138210FA8FCF70FF9D2
:10F37000012610A886814D48149024211DA8FCF771
:10F3800006F920A8067040202190B4202290484B16
:10F390001DAA0FA9009501A8FEF75CFE002801D068
:10F3A000FEF7A2FC1C216846FCF7F1F80520C0031B
:10F3B00001900F200004029000950321684601731C
:10F3C000C58105743B4805903B4806906846FFF7A9
:10F3D0000FF8002801D0FEF787FC0320FEF712FF8C
:10F3E000002801D0FEF780FC34A10020FEF748F889
:10F3F000204600F00FF935A10020FEF741F801F09A
:10F40000C5FD38A10020FEF73BF8FFF7C1FC3AA18B
:10F410000020FEF735F8254C103C607800281ED0FF
:10F420006570E079002807D1A079002804D01E4833
:10F4300032219C3001F01EFBE079401CC0B2E0712B
:10F44000022800D1E5710B4A09481723743A4B2171
:10F45000083800F075F9002801D0FEF745FC48DFB8
:10F460000028DAD0FEF740FCD7E70000D4230020C4
:10F4700030180200D4210020651302000A0D7561C6
:10F48000727420696E69740D0A0000000A0D626CC6
:10F490006520737461636B0D0A00000044454341AD
:10F4A0005F4C4200D5FA01009C250020F81F002087
:10F4B000FBFA010099FB0100A1EC01000A0D416477
:10F4C000766572746973696E670D0A000A0D545788
:10F4D000492073656E736F72206578616D706C651D
:10F4E0000D0A00000A0D54574920496E697469617C
:10F4F0006C697A65640D0A000A0D494D5520496E04
:10F50000697469616C697A65640D0A0070B51446A6
:10F5100082880E4605462088111D4118921C99428A
:10F5200001D8FE2A01D90C2070BD521C325420880B
:10F53000FF21401C80B2208031542088401C80B2C2
:10F5400020808119288802F02FF82188401880B285
:10F550002080AA88002A09D0A968002908D080192B
:10F56000FBF7B6FF2088A98840182080002070BDD6
:10F57000072070BDF8B50F460178144605460129ED
:10F5800002D16878002806D02088821C9A422DD8A3
:10F59000012902D006E00720F8BD69784118891CCE
:10F5A000994223D8181A801E86B2684606802188A0
:10F5B000B81C081869467DDF0028EDD1287802289C
:10F5C00005D169460988B14201D809210AE008211C
:10F5D000012805D16878B04202D86A46108001E05F
:10F5E0006846068068460088FE2801D90C20F8BDD0
:10F5F0002288401CB8542088401C80B22080395496
:10F6000020886946401C20800988401820800020FE
:10F61000F8BD000031B5054C04E0401E00902046C6
:10F62000FBF7A6FD00980028F7D138BDE7030000DE
:10F630008207D30EFF229A408907090E10B5994020
:10F6400000280BDA03071B0F083B9C080C4BA40097
:10F65000E318DC6994430C43DC6107E08408094B40
:10F66000A400E418236893430B432360C106C90E2A
:10F6700001208840044908600449086010BD00006A
:10F6800000ED00E000E400E080E200E000E100E0E6
:10F69000017928225143054A00688918052213027E
:10F6A000C018026002202031887070477429002041
:10F6B000F8B507460C46007928211D4D41434D19E8
:10F6C0002E462036B178002901D00820F8BD002C44
:10F6D00002D11849000144180CC50020286070713F
:10F6E000307121463846083D01F0C2FB20681249BE
:10F6F00082001248121811606268920010180160AE
:10F70000052338681B0206CCC0188160C2602168DE
:10F7100041622868083C002805D03868217B000B2E
:10F7200040B2FFF785FF0120B0700020F8BD000057
:10F7300074290020DC1802000C06000000070050AD
:10F740003EB5074D2C69AD69009402956C46617019
:10F75000A37001920022694600F016F83EBD000039
:10F76000DC1802003EB50025069C009502956D460A
:10F770006970AB700192002C01D0202200E00022C1
:10F78000294600F001F83EBD70B50D4601792823E9
:10F790005943064BCC18910701D0062070BD134683
:10F7A00001682A46204601F031FD70BD7429002011
:10F7B000F3B52A4C0746E07E81B0002801D008202E
:10F7C000FEBD002F00D1264F0126387831468140FA
:10F7D00024488160386800F03EF90021786800F024
:10F7E00031F9214DB8696862787D397D0843E86652
:10F7F00003CFE8606961387B083F01280FD1002101
:10F80000B86800F01FF9387B3146814015488160A7
:10F81000F86800F020F9F968B868A96028610298D2
:10F8200060603969216000280ED0FF230F481D3326
:10F83000397F0022C250FF234533C2500D4A0C4885
:10F8400050600220FFF7F4FE042028600020E075DD
:10F850002076A075E676A076FEBD00008028002008
:10F86000BC180200000500500025004000200040A8
:10F870008000020000230040F8B5104B81245E6830
:10F880000022A4000E4D002E00D0AC60DF7D002FC2
:10F890000BD01A7E002A04D0002E00D06C601120FC
:10F8A000F8BD18610122197604E0D9750024D860EA
:10F8B0005C761C7600F012F8F8BD0000802800206D
:10F8C0000023004010B5044CA07E002803D101F0B5
:10F8D00075F80120A07610BD80280020F8B5234DD2
:10F8E000A87E104301D101F069F86868204C002817
:10F8F00005D081201F49800048600020F8BDFF200E
:10F90000453000212150FF212531204600F0D5F857
:10F910000546FF210931204600F0CFF80746FF21B8
:10F920004531204600F0C9F806463946314329439F
:10F93000E9D02846304306D100F0C6FF0B48C17D10
:10F94000407E8142DFD800210848002DC17501D0DA
:10F950000320F8BD002E01D00F20F8BD817E0120CC
:10F96000002901D02060C8E76060C6E78028002039
:10F97000002000400023004010B5034600F048F886
:10F98000002801D0112010BD034A0020917593601A
:10F99000908200F003F810BD80280020F8B5002602
:10F9A000194FFF251D357E510120B86001F074FC10
:10F9B000164C6168002910D022E0FF270137294644
:10F9C000114800F07AF8002802D1A08AB842F6D196
:10F9D000A08AB84201D001F05FFCA08AA17D8842D4
:10F9E000EBD3A18AC81FF9380CD0074F29463846F7
:10F9F00000F063F80028F9D00120F8600020A0751D
:10FA00003046F8BD0F26F9E700200040802800208E
:10FA10000248807D002800D0012070478028002007
:10FA200030B552000A439900039C0A432102049D09
:10FA30000A4329040A43024980004018026030BD8D
:10FA4000000700501CB500220B460092114601929F
:10FA5000FFF7E6FF1CBD1CB5002100910B460122FB
:10FA600001911146FFF7DCFF1CBD00008200064833
:10FA70001018026803231B049A43026002680904F9
:10FA80000A430260704700000007005001218140D6
:10FA9000014881607047000000050050034940188C
:10FAA0000068012800D0002070470000006000407E
:10FAB0004058002800D0012070474058002800D04E
:10FAC000012070470322120280184068084000D0CD
:10FAD0000120704770B516460D46002405E0285DEC
:10FAE000FEF768FA0028FAD1641CB442F7D30A2062
:10FAF000FEF760FA0028FAD170BD10B5002809D0D1
:10FB0000032806D10220FEF703FF002801D0FEF7EC
:10FB1000EBF810BD01F084F810BD000070B501884D
:10FB20001C4C0546112923D013DC012910D01029C3
:10FB30000ED10720FEF7ECFE002801D0FEF7D4F826
:10FB4000A88860810120A0717D20C000FFF762FDC0
:10FB500070BD10481329408916D05229F8D10023CE
:10FB60001A461946A9DF0028F2D0FEF7BDF870BD8D
:10FB70000020A071FEF7CCFE002801D0FEF7B4F8FB
:10FB80000020C043608170BD00231A4685217FDFBD
:10FB9000E9E70000E81F002010B50078002807D131
:10FBA00004483B21408976DF002801D0FEF79CF80D
:10FBB00010BD0000E81F0020F0B5674D674C2E46D1
:10FBC000687AF71C761C8DB0052843D1A8780328E5
:10FBD0007ED12879FB28FBD1E87A8007800F6072FC
:10FBE000707B317B00020843FBF7D2FF0290787BE9
:10FBF000397B00020843FBF7CBFF0190707C317C1E
:10FC000000020843FBF7C4FF0090787C397C0002B7
:10FC10000843FBF7BDFFFBF769FF00B2217B00F053
:10FC2000D7FD20620298FBF761FF00B2217B00F054
:10FC3000CFFD60610198FBF759FF00B2217B00F016
:10FC4000C7FDA0610098FBF751FF00B2217B00F0D7
:10FC5000BFFDE061687A042847D1A878032844D121
:10FC60002879FB2841D1E87A8007800F6072707B89
:10FC7000317B00020843FBF78BFF0090787B397BD8
:10FC800000020843FBF784FF0746707C317C0002CA
:10FC90000843FBF77DFF06460098FBF727FF00B2FD
:10FCA000A17B00F095FD60623846FBF71FFF00B2B4
:10FCB000A17B00F08DFDA0623046FBF717FF00B27C
:10FCC000A17B00F085FDE062687A04280DD100E098
:10FCD0000BE0A878032808D12879FB2805D1A87B58
:10FCE000A070FF2801D10020A07032211C48FBF732
:10FCF0004EFCE06AFBF7D0FE07910690A06AFBF786
:10FD0000CBFE07460891606AFBF7C6FE05460E4625
:10FD1000E069FBF7C1FE05910490A069FBF7BCFE0A
:10FD2000039102906069FBF7B7FE01910090206A91
:10FD3000FBF7B2FE0246A0780C9006980B46079996
:10FD40000B910A90089906A8E0C0099105A1044802
:10FD5000FBF786FA0DB0F0BD60210020E81F0020FF
:10FD60003826002025332E32662C25332E32662C81
:10FD700025332E32662C25332E32662C25332E3237
:10FD8000662C25332E32662C25332E32662C2564C4
:10FD90003B0000000021425C002A01D00120704796
:10FDA000491C0629F7D3002070470000F0B51FB4A6
:10FDB00096B084460C460246199D18980390490057
:10FDC00068006300490840080193002A01D0012619
:10FDD00000E000269E19FE4BF6185B109E422BD3C6
:10FDE0006E00039F0296002F00D00127F719F84EEE
:10FDF000F84BBE199E421FD3039E0346F64F334372
:10FE000009D03B469C4201D1002A04D0019B002A24
:10FE100005D0012604E0002039461BB0F0BD0026C5
:10FE20009E19EE4B9E4207D8039F029E002F00D0E2
:10FE30000127F6199E4207D92B4660462146189A9B
:10FE4000FDF7F2FD1BB0F0BD0023002C29DAE44ED3
:10FE5000B04226DAE34EB04201DB022321E0DE4E5F
:10FE6000B0421EDBE04E070DBE19142E09DD34270B
:10FE7000BF1B039EFE400196BE40039FBE420BD0B7
:10FE80000FE0039F002F0CD11427BF1B0646FE4036
:10FE90000196BE40864204D1019BDE07F60F022385
:10FEA0009B1B0E46164318D1002D16DA002C03D0EA
:10FEB000022B01D0012B06D00220FBF772FEFDF7CA
:10FEC000A9FD1BB0F0BD0220FBF76BFEFDF7A2FD04
:10FED0000122D20751401BB0F0BD039E002E61D11C
:10FEE000BF4EB04220D1C148844201D1002A08D07F
:10FEF000B948814209DB002D10DB189829461BB058
:10FF0000F0BD0020B4491BB0F0BD002D06DA01227F
:10FF10002946D207189851401BB0F0BDB449794426
:10FF2000086849681BB0F0BDAB4FB84225D1002D21
:10FF30001FDA002904D0B14212D1002A09D018E0FA
:10FF4000002A72D1A649E20F0020D20711431BB04C
:10FF5000F0BD0020E20F0146D20711431BB0F0BDF7
:10FF6000B14206DA234600203946FCF761FA1BB09D
:10FF7000F0BD104621461BB0F0BDB14212DA012699
:10FF8000B607B54203D1234610461946FEE3994E03
:10FF9000B54207D1261E05DB1046314600F09AFE19
:10FFA0001BB0F0BD67007F081646002A40D100292B
:10FFB0000AD08B4A914229D1002C0EDD002D1CDB8A
:10FFC000002011461BB0F0BD022B16D0002C14D01F
:10FFD000012B12D1002C14DB0FE0002C28DA002DAD
:10FFE00009DB012B03D000207D491BB0F0BD0020B0
:10FFF00081491BB0F0BD012B03D0002001461BB08E
:020000040002F8
:10000000F0BD00200121C9071BB0F0BD724A91422A
:100010000ED1002C01DA002B17D0022B06D00020C5
:10002000C043FBF70AFC1BB0F0BD90E20120F8E7EB
:10003000E217521C94461A4307D000220892664CDD
:1000400062465B1E1A4307D009E00120FBF7A9FDB9
:10005000FDF7EEFC1BB0F0BD0022644C0892674A2D
:1000600090427DDD664B674A98421FDD914202DC7B
:10007000002D05DB4DE05848814217DB002D48DD9F
:100080000220FBF78EFDFDF7DBFC05460E46002245
:10009000534B21460898FBF7DBFB084671004908E3
:1000A000C00FC007014328461BB0F0BD914215DACE
:1000B000002D2EDA0220FBF774FDFDF7C1FC05468A
:1000C0000E460022464B21460898FBF7C1FB720002
:1000D0005208C80FC0070243114617E03E4B994231
:1000E00023DD002D15DD0220FBF75BFDFDF7A8FCED
:1000F00005460E4600223A4B21460898FBF7A8FB1E
:10010000084671004908C00FC007014328461BB0CC
:10011000F0BD0220FBF745FDFDF79CFC49004908B6
:10012000E20FD20711431BB0F0BD00223046394622
:10013000FCF75BF9012205460E46D243FCF79CFB17
:10014000314A324BFCF75CF92A463346FBF780FB19
:100150000022284BFCF754F907462A46334600E0B4
:1001600064E0039110461946FBF772FB3A46039B85
:10017000FBF76EFB0746032209915207244B2846E2
:100180003146FBF765FB07910C90224A204B38461D
:100190000999FBF75DFB074601911F4A1F4B284653
:1001A0003146FBF755FB3A46019BFCF71EF9074623
:1001B0000B460246099107990C98FCF709F90025AE
:1001C0000E462846079B0C9AFCF70FF93A4627E0A3
:1001D000FFFF1F00FFFF0F000000F03F0000E0FFE7
:1001E0000000F07F0000404301FCFFFF0000F0BF73
:1001F000061B00000000E03F0000F0FF0000E041AF
:100200000000F043FFFFEF3F555555555555D53F7D
:100210004715F73FFE822B6544DF5DF80BAE543E79
:10022000099BFCF7EDF802460B4652E10125002040
:100230002D05A94207DA352230463946FCF71CFB6A
:1002400006463420C0430A151218FE4810180390C1
:100250000803FD49000B01430F46FC49884201DCBD
:10026000002003E0FA49884202DA0120119005E0FB
:10027000002011900398401C7F1B03901198059754
:10028000C200F4480F9278448018436802683946E7
:1002900030460D930292FCF7A8F807910C90304677
:1002A0000D9B029A0599FCF793F802460B46002035
:1002B000E549FCF7BDF809910490079B0C9AFBF700
:1002C000C7FA129000201090E3480D467844006869
:1002D0000E90012178104907084311990D9B89045C
:1002E00040180121C90447183946029A0E98FCF7B4
:1002F0007CF83246059BFCF783F802460B462946FC
:100300001098FBF7A5FA064602913B4629460E9A3D
:100310001098FBF79DFA079B0C9AFCF771F8324690
:10032000029BFCF762F8099B049AFBF791FA05918E
:10033000129A0A902B4610461946FBF789FA064690
:100340000246C6480F460B4606217844FDF70CFBD3
:1003500032463B460091049010461946FBF778FA66
:10036000009B049AFBF774FA06460F462B46194683
:10037000129A1098FCF72CF8059B0A9AFBF768FA7A
:1003800032463B46FCF724F8109A079104902B461E
:1003900010461946FBF75CFAB14E0022334609912C
:1003A0000290FCF715F8079B049AFCF711F800205F
:1003B0000746024633460091FCF717F8099B029A5C
:1003C000FCF713F8079B049AFCF71AF806460D9100
:1003D0003A462946009B1098FBF73AFA07910C9091
:1003E0002B463046129A0D99FBF732FA05460E4617
:1003F0003A46009B05990A98FBF72AFA33462A46A3
:10040000FBF7E6FF02460B460746099107990C9851
:10041000FBF7DEFF00250E462846079B0C9AFBF7EC
:10042000E4FF3A46099BFBF7EBFF074607220991D9
:1004300052078C4B31462846FBF70AFA0791009089
:10044000894A884B38460999FBF702FA0746019119
:10045000864A874B31462846FBF7FAF93A46019B14
:10046000FBF7B6FF834B7B440F9A9B181A685B68B7
:10047000FBF7AEFF029009910398FBF7DEF90591B7
:100480000490099B029A07990098FBF7A1FF7A4B09
:100490007B440F9A9B181A685B6817460393FBF717
:1004A00097FF059B049AFBF793FF0E462846059B92
:1004B000049AFBF79AFF3A46039BFBF796FF079BCC
:1004C000009AFBF792FF099B029AFBF799FF0246FD
:1004D0000B46199900200C900F461898FBF7B8F9B5
:1004E000029104903B460C9A19991898FBF77DFFEE
:1004F0002A463346FBF7ACF9029B049AFBF768FFE8
:1005000009910E902A46334639460C98FBF7A0F91C
:1005100006460F46099B0E9AFBF75AFF574A0D46AF
:10052000914220DB5242AA18024310D132463B4688
:10053000FBF75BFF04900391514A524B09990E98C7
:10054000FBF746FF039B049A01F030F91ED202200C
:10055000FBF727FBFDF774FA49004908E20FD207C1
:1005600011431BB0F0BD6A00474B52089A420DD3AD
:10057000464AAA18024300D0CBE532463B46FBF779
:1005800034FF099B0E9A01F011F9F5D96800002398
:1005900040082C490393020D3D4B5218984223DD2D
:1005A00001200005521CD04042195000400D401857
:1005B00038497944096813468C463749C1408B4312
:1005C00012030121120B090551181422101AC140FF
:1005D0000391002D01DA48420390624630463946C5
:1005E000FBF703FF06460F4632463B4609990E9835
:1005F000FBF7EEFE00252A46284B28460591FBF71F
:1006000027F907910C90264A264B28460599FBF7B7
:100610001FF90091029032463B4628460599FBF7A8
:10062000E4FE099B0E9AFBF7EBFE1F4A1F4BFBF7FC
:100630000FF9009B029AFBF7CBFE07460B460246DA
:10064000099135E001FCFFFF0000F03F8E980300A8
:100650007AB60B009616000058170000021600002C
:100660000000084009C7EE3FFD033ADCF5015B14CA
:10067000E02F3EBED61400009C1400000000904005
:10068000FE822B654715973C00CC904000346F3FAD
:100690000000E03F72140000FFFF0F00432EE63F12
:1006A000396CA80C615C20BEEF39FAFE422EE63FA1
:1006B00007990C98FBF78CFE05460E46079B0C9A93
:1006C000FBF793FE3A46099BFBF79AFE09912A46EF
:1006D00033460E9010461946FBF7BAF80746024615
:1006E0002F480B46059105217844FDF73DF93A4620
:1006F000059BFBF7ADF82A463346FBF781FE07461C
:10070000019128463146099B0E9AFBF7A1F8099BF7
:100710000E9AFBF75DFE012304910C9000229B07CB
:1007200038460199FBF761FE05910E903A4628463E
:100730003146019BFBF78CF8059B0E9AFBF778FE80
:10074000049B0C9AFBF751FE2A463346FBF74DFEFD
:100750000022144BFBF754FE064603980D46000595
:1007600041190915002912DC30462946039AFCF785
:1007700083F8FDF7E3F8042801D1FDF76BF9304663
:100780002946039AFCF778F8064601E004E02918A8
:100790000B46324621460898FBF75AF81BB0F0BDCD
:1007A000941200000000F03F07490979490701D47D
:1007B00008207047002804D00449497801600020CF
:1007C00070470E2070470000802000209C280020E9
:1007D00070B50C46FBF7D4F906466042FBF72DF8DE
:1007E0000B460246012100208907FFF7DFFA054684
:1007F0000C463046FBF750F92A462346FBF728F80B
:10080000FAF7BCFF70BD000010B50A49012008715D
:100810000948F9210171002141710221084600F0C7
:100820006DF90648407AF82801D0012010BD00205B
:1008300010BD0000E81F0020B82500206021002026
:1008400010B5074C01200749E0700871014600F01F
:1008500055F9E27804A10020FCF712FE10BD00005B
:10086000E81F0020B82500205265736574205F6979
:100870006E5F66756E6374696F6E3A2025640D0A4B
:100880000000000070B501240B49600408600B49AA
:1008900040108860094940398860094D6C602F20FC
:1008A000FAF786FCAC60074D00242F202C61FAF784
:1008B0007FFCEC7070BD000080E100E0401301405F
:1008C00000100140A420002030B50A48FF21C57D5A
:1008D0000022094C0931094B002D625007D099695B
:1008E000437EC268D154417E491C417630BD98692F
:1008F00030BD00008028002000200040002500407E
:1009000070B500240546601C90B00007000F08A9D0
:10091000103008940870601C0007000F10304870F9
:100920008878F9263040801C88701C2101A8FAF7CD
:100930002EFE694608791021084369460871029421
:1009400008A80494059407940690287808A988714B
:1009500003206946888411200094087048708878C4
:10096000F7213040801C0840EF2108400126304329
:100970006946887014210AA8FAF709FE09A80A90A6
:1009800068460B9069460E8614204C8688862B4656
:1009900068880C330AAA01A9A2DF10B070BD00005C
:1009A0001FB501236A46137010720348019106C8EF
:1009B000684690471FBD000080280020FF220548A0
:1009C000253200218150FF2209328150012101602E
:1009D000704700000020004008B502490020009147
:1009E00008BD0000E81F002010B50121202805DA0D
:1009F0001A4A8140114201D1194810BD8107C90E20
:100A0000002808DA0207120F083A9208154B9200E4
:100A1000D218D26904E08208134B9200D2181268EF
:100A2000CA401106890F042911D200290FD00229CA
:100A30000DD00E494C68C306DB0E01229A40002CF3
:100A400008D0400980000B5813430B5004E00448C1
:100A5000401C10BD06480260002010BDFC06FFBC13
:100A60000120000000ED00E000E400E0542100203F
:100A700000E100E0F0B585B00F4606461421684657
:100A8000FAF785FD00252C461EE0002C11D014211C
:100A90002046FAF7C3FD00290BD16D1CEDB22A46A2
:100AA00010A10020FCF7ECFC142269461248FDF767
:100AB000B5FD14206843221A315D68468154305DCB
:100AC0003B2805D0641CE4B2BC42DED305B0F0BDC7
